:020000040800F2
:10000000084F0020990100089929000821160008CE
:1000100095290008A90E00080554000800000000FA
:1000200000000000000000000000000001010008C6
:100030003D1000080000000045010008753E000862
:10004000B3010008B3010008B3010008B3010008C0
:10005000B3010008B301000841100008B301000813
:100060005D10000891100008B1100008B3010008ED
:10007000B3010008B3010008B3010008B301000890
:10008000B3010008B3010008B3010008B301000880
:10009000B3010008B3010008B3010008B301000870
:1000A000B3010008B3010008B3010008B301000860
:1000B000E53E0008093F0008FD3F0008B3010008C5
:1000C000B3010008B3010008B3010008B301000840
:1000D000B3010008A14F0008295000089150000802
:1000E000B3010008B3010008B3010008DFF80CD029
:1000F00000F008FD00480047C9600008084F0020D4
:10010000224B19680868B0E8F00F80F30988BFF344
:100110006F8F4FF0000080F311884EF00D0E704786
:100120000000000006480068006880F3088862B696
:1001300061B6BFF34F8FBFF36F8F00DF00BF00BF0B
:1001400008ED00E0EFF30980BFF36F8F0F4B1A68E3
:1001500020E9F00F106008B54FF0100080F311880F
:10016000BFF34F8FBFF36F8F09F0A2F84FF000007D
:1001700080F31188BDE8084019680868B0E8F00FFE
:1001800080F30988BFF36F8F704700BF0C01002018
:10019000EFF3058070470000064880470648004797
:1001A000FEE7FEE7FEE7FEE7FEE7FEE7FEE7FEE727
:1001B000FEE7FEE7853E0008ED00000840EA010387
:1001C0009B0703D009E008C9121F08C0042AFAD20D
:1001D00003E011F8013B00F8013B521EF9D27047D1
:1001E000D2B201E000F8012B491EFBD27047002279
:1001F000F6E710B513460A4604461946FFF7F0FF26
:10020000204610BD421C10F8011B0029FBD1801AAA
:100210007047F0B480EA0102D40F4200B2EB410F04
:1002200002D20246084611464A0042D0C30DDDB252
:10023000C1F3C752AD1A202D35DAC1F3160141F4CE
:10024000000204B15242C5F1200602FA06F12A4129
:100250001044B3EBD05F23D0C4B1012DA0EBC35049
:1002600009DCF0BC4FF0004202EAC352DBB200F5F9
:10027000000000F0ABBA400000F1807000EBC3500A
:10028000A0F1807040EAD170490009E0490841EAD4
:10029000C071A0EBC35000F50000400800EBC35054
:1002A000F0BC00F08ABA6142012202EB4101001B5E
:1002B000F6E7F0BC704781F00041AAE780F000400B
:1002C000A7E780EA010210B502F00043400022D007
:1002D0004A001FD0010E01EB1261C0F35600C2F3B9
:1002E000560240F4000042F40002A0FB0220000489
:1002F0007F39140400D0401C50EA124001D4400061
:10030000491EC2B20C0604EBD010401C4008802AE3
:1003100002D003E0002010BD20F00100002900DA27
:100320000020184310BD30B480EA010202F00045FD
:1003300030F0004221F0004013D090B1C30DD40D35
:10034000C2F31601C0F31600E41A41F4000140F4B0
:1003500000027D34914201D3641C00E04900002C6E
:1003600002DA30BC002070474FF4000000239142B5
:1003700001D3891A034340084FEA4101F7D151B133
:10038000914202D14FF0004105E002D24FF001014D
:1003900001E06FF0010103EBC450284430BC00F0D1
:1003A0000CBA2DE9FE4F81EA030404F0004421F069
:1003B000004100944FF0000B23F0004350EA010489
:1003C0005ED052EA03045BD0C3F30A54C1F30A556A
:1003D0002C44A4F2F3340194A0FB0254C1F31301A2
:1003E00041F48011C3F3130343F4801301FB02446F
:1003F00000FB034E840A970A44EA815447EA835774
:10040000A4FB076802958D0A05FB07854FEA932C2C
:1004100004FB0C542705029D4FEA065847EA16379D
:10042000B5EB08056EEB070C870E920E47EA8117B5
:1004300042EA8312A7FB0201B6EB0B0164EB000456
:100440002B0D43EA0C335E1844EB1C50DA46514640
:10045000E7FB0201C5F313044FEA0B3343EA1453DD
:100460004FEA0432019C43EA0603A4F10C0402940F
:10047000009CCDE900B400F0E6F903B0BDE8F08FD0
:1004800000200146F9E72DE9F04D81EA030404F06C
:10049000004B21F0004514464FF0000A23F00041C4
:1004A00050EA050220D054EA01021DD0C5F30A57D4
:1004B0000246C5F31303C1F31300C1F30A5640F417
:1004C000801543F48013A7EB0608101BD64608F2EC
:1004D000FD3873EB050002D308F1010801E0921822
:1004E0005B41B8F1000F03DA00200146BDE8F08D52
:1004F00000204FF48011064684460EE0171B73EB74
:10050000050705D3121B63EB050306434CEA010CF8
:1005100049084FEA300092185B4150EA0107EDD1DB
:1005200052EA030012D082EA040083EA050108437C
:1005300005D0101BAB4106D20122002306E00022A9
:100540004FF0004302E06FF0010253101AEB060077
:100550004CEB085110EB0A0041EB0B01BDE8F04DEC
:1005600000F062B9C10F80EAE0700844CA07962320
:10057000002100F02BB996230022114600F026B985
:100580000EB540F2334102910021CDE900110A4637
:100590000B4600F058F903B000BD00F0004220F017
:1005A0000040C10DC0F3160040F400007F2901DABD
:1005B00000207047962903DCC1F19601C84001E094
:1005C00096398840002AF4D04042704720F000401D
:1005D000C10DC0F3160040F400007F2901DA0020AD
:1005E0007047962903DCC1F19601C84070479639DF
:1005F00088407047C1F30A5210B5C1F3130140F2AD
:10060000FF3341F480119A4201DA002010BD40F21C
:1006100033439A42A2F2334203DC524200F0BDF867
:1006200010BD904010BD00F0004230F000400AD0F4
:10063000C10D01F56071C0F3160042EA0151C20814
:1006400040071143704700200146704730B5041E33
:1006500071F1000404DB4FF00044404264EB0101FF
:10066000141E73F1000405DB1C464FF00043524298
:1006700063EB04038B4208BF824230BD30B5041ED9
:1006800071F1000404DB4FF00044404264EB0101CF
:10069000141E73F1000405DB1C464FF00043524268
:1006A00063EB0403994208BF904230BD01F0004360
:1006B00030B421F0004150EA010206D00A0DA2F543
:1006C0006072C1F31301002A02DC30BC00207047C5
:1006D000440F44EAC104C100E01830BC00EBC25032
:1006E00000F06BB8002801DBC0F10040002901DBFD
:1006F000C1F1004181427047002801DBC0F1004098
:10070000002901DBC1F100418842704730B50B463A
:10071000014600202022012409E021FA02F59D4231
:1007200005D303FA02F5491B04FA02F52844151E05
:10073000A2F10102F1DC30BD2DE9F05F0546002099
:1007400092469B4688460646814640241BE0284642
:1007500041464746224600F020F853465A46C01A02
:10076000914110D311461846224600F0DDF92D1AAA
:1007700067EB01084F4622460120002100F0D4F922
:1007800017EB00094E41201EA4F10104DFDC4846AE
:1007900031462A464346BDE8F09F202A04DB203A32
:1007A00021FA02F00021704721FA02F3D040C2F191
:1007B000200291400843194670470029A8BF70479E
:1007C000401C490008BF20F00100704710B4B0FA87
:1007D00080FC00FA0CF050EA010404BF10BC704722
:1007E00049B1CCF1200421FA04F411FA0CF118BF3C
:1007F000012121430843A3EB0C01CB1D4FEA00610B
:100800004FEA102042BF002010BC704700EBC350DD
:1008100010440029A4BF10BC7047401C490008BF09
:1008200020F0010010BC704710B5141E73F10004D5
:1008300008DA401C41F1000192185B411A4301D1D2
:1008400020F0010010BD2DE9F04D92469B4611B1FC
:10085000B1FA81F202E0B0FA80F22032904600F064
:1008600063F904460F4640EA0A0041EA0B01534689
:100870005A46084313D0114653EA010019D0C8F173
:1008800040025046FFF789FF05460E46504659463E
:10089000424600F049F9084305D0012004E0204613
:1008A0003946BDE8F08D0020054346EAE0762C434A
:1008B00037430A986305E40AA0EB08000022FD0A0A
:1008C00044EA47540A3002D500200146E9E7010511
:1008D00010196941DDE9084500196941BDE8F04D8D
:1008E000A2E72DE9FE4F804681EA0300C00F0C46C7
:1008F000009021F0004123F00045B8EB0200A9412F
:1009000005D24046214690461C460B46024623F03F
:100910000040104347D0270DC7F30A00C3F30A5124
:100920000290401A019040286BDAC3F3130040F4A0
:10093000801B0098924620B10023D2EB030A63EBA0
:100940000B0B01985946C0F14002504600F0ECF8FC
:1009500006460D4650465946019A00F0F4F810EB51
:1009600008006141002487EA115284EAE7731A43C0
:1009700040D0009A62B3019A012A4FEA075215DC6F
:10098000001B61EB02014FF0004202EA0752CDE981
:100990000042001C41F5801132462B46FFF753FF01
:1009A00003B0BDE8F08F40462146F9E7001B61EB3C
:1009B0000201001C41F5801300185B412018A2F5CC
:1009C000001747EB030140EAD570B6196D4111E0FD
:1009D0006D084FEA360645EAC0754FEA0752001B1C
:1009E00061EB0201001C41F5801149084FEA30001B
:1009F0000019514132462B4603B0BDE8F04FFFF7D6
:100A000013BF0098012240000023D0EB020263EBE9
:100A1000E073009821464FEAE074B8EB000061EB08
:100A20000401E9E783F000435BE781F0004158E708
:100A30002DE9F04D00231A461B1A8A4103DB0020E2
:100A40000146BDE8F08DC1F30A52C1F3130141F430
:100A500080154FF0000BD10702D100186D41521ED6
:100A60000027044640F2FF11384601EB620A3E4679
:100A70008046024600204FF48011FFF78EFEC21917
:100A80007141BB1846EB0100B4EB030C75EB000C95
:100A900004D3E41A65EB000517460E46241908F145
:100AA00001006D4180463428E3DDF91946EB06006C
:100AB000091BA84103D24FF0FF32134601E0002288
:100AC00013461BEB070046EB0A51BDE8F04DFFF75C
:100AD000ABBEC1F30A52C1F3130140F2FF3341F43C
:100AE00080119A4202DA00200146704740F23343F7
:100AF0009A42A2F2334202DC5242FFF74EBE00F0AD
:100B000013B80000064C074D06E0E06840F0010312
:100B100094E8070098471034AC42F6D3FFF7EAFA9E
:100B2000ECBD00080CBE0008202A04DB203A00FAC5
:100B300002F1002070479140C2F1200320FA03F334
:100B4000194390407047202A06DBCB17203A41FA20
:100B500002F043EAE07306E041FA02F3D040C2F14A
:100B60002002914008431946704770B58C1810F860
:100B7000015B15F0070301D110F8013B2A1106D1E2
:100B800010F8012B03E010F8016B01F8016B5B1EFC
:100B9000F9D12B0705D40023521E0DD401F8013BD7
:100BA000FAE710F8013BCB1A921C03E013F8015B43
:100BB00001F8015B521EF9D5A142D8D3002070BDC7
:100BC00010B5A2B080212D48FFF711FB2CA22EA159
:100BD0002A4804F029FC2948FFF714FB344908602F
:100BE00080213448FFF703FB33A325A235A1314808
:100BF00004F01AFC2F48FFF705FB344908608021F8
:100C000002A8FFF7F4FA2CA01DA31DA230A10090AA
:100C100002A804F009FC02A8FFF7F4FA0446202019
:100C200034A33D4A2146009002A806F039FA3A481A
:100C3000FFF7E8FA3949086080213948FFF7D7FA09
:100C40001DA238A1364804F0EFFB40F25B703F492B
:100C500008600846324902683DA004F0D5FB074908
:100C600040A004F0D1FB134942A004F0CDFB2A4977
:100C700044A004F0C9FB22B010BD0000DA3F002000
:100C8000444C43530000000025737C736563757208
:100C9000656D6F64653D332C7369676E6D6574684F
:100CA0006F643D686D6163736861317C00000000B2
:100CB000E40100205A4000206131745952535033EE
:100CC000463631002573262573000000E801002018
:100CD000636C69656E7449642573646576696365E0
:100CE0004E616D65257370726F647563744B6579C1
:100CF000257300003233313131383837326630668F
:100D00006366376264626436346437393437343149
:100D10006335373700000000DA400020EC01002086
:100D20005A41002025732E696F742D61732D6D71EA
:100D300074742E636E2D7368616E676861692E61CD
:100D40006C6979756E63732E636F6D00F00100201E
:100D5000B7FE20CEF120C6F7A3BA25733A25640D5D
:100D60000A000000BFCDBBA7B6CB4944A3BA257388
:100D70000D0A0000D3C320BBA720C3FBA3BA257371
:100D80000D0A0000C3DC20202020C2EBA3BA25738B
:100D90000D0A000008B50A48002301221E21009018
:100DA00008A009F029FA094908600846006818B93E
:100DB00007A004F029FB02E00AA004F025FB08BD0F
:100DC0009993000854696D657200000018000020B6
:100DD000C8EDBCFEB6A8CAB1C6F7B4B4BDA8CAA7D0
:100DE000B0DC0000C8EDBCFEB6A8CAB1C6F7B4B40A
:100DF000BDA8B3C9B9A600001CB507F06DFF164821
:100E0000052100234FF40072CDE9001013A116480C
:100E100008F0CCFE1548012100237E22CDE9001008
:100E200013A1164808F0C2FE1548012100234A020A
:100E3000CDE9001013A1164808F0B8FE15480221AC
:100E400000237D22CDE9001013A1164808F0AEFE64
:100E500007F086FF1CBD0000040000206C656430B4
:100E60005F7461736B000000B95F00080800002028
:100E70004B45595F7461736B00000000691B0008EB
:100E8000100000204F4C45445F7461736B000000FC
:100E9000212A000814000020484C575F7461736BCE
:100EA00000000000B515000800BFFEE710B500F017
:100EB0000FF802F037FB02F049FD02F0D5FB02F01B
:100EC000E1F902F0C7FA02F0CFFC02F087FC10BD96
:100ED00010B50221002004F047FA0A2004F0CCFFEC
:100EE0002E48007800F036FB2C490978491E2C4A20
:100EF000515C884208D1104640781146097800EBD1
:100F000001202849086005E027A004F07DFA0120AF
:100F10002C4908700221012004F026FA0A2004F06E
:100F2000ABFF1E48007800F015FB1C490978491EEC
:100F30001B4A515C884208D1104640781146097816
:100F400000EB01202049086005E020A004F05CFAD5
:100F500001201C4908700221132004F005FA0A2020
:100F600004F08AFF0D48007800F0F4FA0B49097884
:100F7000491E0B4A515C884208D110464078114600
:100F8000097800EB01201849086005E017A004F07B
:100F90003BFA01200B49087010BD00002D00002015
:100FA0001A02002078000020537973636F6E526537
:100FB00067BCC4B4E6C6F7B6C1C8A1B3F6B4ED0DBC
:100FC0000A000000310000207C000020456D7563A0
:100FD0006F6E526567BCC4B4E6C6F7B6C1C8A1B3AC
:100FE000F6B4ED0D0A00000080000020456D756329
:100FF0006F6E32526567BCC4B4E6C6F7B6C1C8A10D
:10100000B3F6B4ED0D0A0000002004E00021074A09
:101010001154411CC8B20A28F8DB0021044A11709F
:10102000044A1170044A1170704700001A0200202F
:10103000300000202F0000202E000020704700000C
:1010400010B50A2004F018FF2021034800F0D1F861
:10105000012000F03DF810BD000C014010B50A2041
:1010600004F00AFF4FF40041074800F0C2F838B915
:101070000648006808B9012000E000200349086024
:10108000042000F025F810BD00080140B401224200
:1010900010B50A2004F0F0FE4FF48051034800F030
:1010A000A8F8082000F014F810BD00000008014066
:1010B00010B50A2004F0E0FE4FF40061034800F090
:1010C00098F8102000F004F810BD0000000801405E
:1010D0000149086070470000140401402DE9F04107
:1010E000024600250026002000230024002791F856
:1010F00003C00CF00F0591F803C00CF0100CBCF10C
:10110000000F03D091F802C04CEA050591F800C029
:10111000BCF1000F31D0146800202BE04FF0010C1F
:101120000CFA00F3B1F800C00CEA03069E4220D18D
:1011300083004FF00F0C0CFA03F7BC4305FA03FCD5
:101140004CEA040491F803C0BCF1280F06D14FF01B
:10115000010C0CFA00FCC2F814C00AE091F803C0BC
:10116000BCF1480F05D14FF0010C0CFA00FCC2F89D
:1011700010C0401C0828D1D31460B1F800C0BCF1E5
:10118000FF0F34DD546800202EE000F1080C4FF012
:10119000010808FA0CF3B1F800C00CEA03069E42FD
:1011A00021D183004FF00F0C0CFA03F7BC4305FA72
:1011B00003FC4CEA040491F803C0BCF1280F05D1EC
:1011C00000F1080C08FA0CF8C2F8148091F803C07A
:1011D000BCF1480F07D100F1080C4FF0010808FAE4
:1011E0000CF8C2F81080401C0828CED35460BDE82B
:1011F000F0810246002093680B400BB1012000E013
:101200000020704741617047016170472DE9FC5F24
:101210000546884691469A46DDF830B00095102084
:10122000019000245FE004EB0410374911F810002E
:101230009BF80010884253D104EB0410324901EBB3
:10124000400040789BF80110884249D108F10F0016
:1012500083B205F10F0082B24146284600F0B0FF8C
:1012600000263BE0002734E00D9890B904EB041011
:10127000254901EB4000801C805D802139410840F8
:1012800018B1484600F0A8FD21E0504600F0A4FD4A
:101290001DE01E48A0F8009004EB04101A4901EB71
:1012A0004000801C805D80213941084018B14146D2
:1012B000284600F06DFD681C85B20098281A102899
:1012C00005D1009D08F101001FFA80F803E0781CA9
:1012D000C7B2082FC8DB00BF701CC6B2202EC1DB0E
:1012E00000BF601C84B2019884429CDB084840889F
:1012F000401E83B206480088401E82B20021084684
:1013000000F05EFFBDE8FC9FA4AD0008880100204E
:10131000382E00202DE9FC5F0546884691469A4606
:10132000DDF830B0009510200190002468E004EB57
:10133000840000EB44103B4901EB400090F848006A
:101340009BF80010884258D104EB840000EB441055
:10135000344901EB400090F849009BF801108842A5
:101360004BD108F1170083B205F1170082B2414654
:10137000284600F025FF00263DE0002736E00D98C6
:1013800098B904EB840000EB4410264901EB4000BF
:10139000805D80213941084018B1484600F01CFDAD
:1013A00022E0504600F018FD1EE01F48A0F8009013
:1013B00004EB840000EB44101A4901EB4000805D0F
:1013C00080213941084018B14146284600F0E0FC30
:1013D000681C85B20098281A182805D1009D08F1CC
:1013E00001001FFA80F803E0781CC7B2082FC6DBA3
:1013F00000BF701CC6B2482EBFDB00BF601C84B2A9
:101400000198844293DB09484088401E83B2074814
:101410000088401E82B20021084600F0D1FEBDE8DF
:10142000FC9F0000C4AF000888010020382E002077
:101430002DE9FC5F0546884691469A46DDF830B0B6
:10144000009510200190002460E004EB84103849DE
:1014500001EB400090F880009BF80010884252D1C8
:1014600004EB8410324901EB400090F881009BF8B6
:101470000110884247D108F11F0083B205F11F0017
:1014800082B24146284600F09BFE002639E0002744
:1014900032E00D9888B904EB8410254901EB400037
:1014A000815D80203841014019B1484600F094FC2C
:1014B00020E0504600F090FC1CE01E48A0F8009090
:1014C00004EB84101A4901EB4000805D8021394112
:1014D000084018B14146284600F05AFC681C85B205
:1014E0000098281A202805D1009D08F101001FFA54
:1014F00080F803E0781CC7B2082FCADB00BF701C5D
:10150000C6B2802EC3DB00BF601C84B20198844247
:101510009BDB09484088401E83B207480088401E74
:1015200082B20021084600F04BFEBDE8FC9F00009F
:1015300064B4000888010020382E002070B50546EC
:101540000E4614463146284600F008FE204600F0BC
:1015500043FC70BD30B5034600210020002204E0AA
:10156000084CA45C2144541CE2B25C1E9442F7DC9B
:10157000054C24780C44044D6D786119C943C8B2F8
:1015800030BD00001A0200201002002010B50346F2
:1015900000220020002104E0054C645C22444C1C25
:1015A000E1B25C1E8C42F7DCD243D0B210BD000029
:1015B0001002002008B500F035F82BE04FF0FF33A3
:1015C0006A461946002008F071FC0446012C21D11E
:1015D000009800F0010060B107F07EFB20210E486A
:1015E000FFF710FE01200D49087000F01BF807F00E
:1015F000B7FB009800F0020060B107F06DFB2021FE
:101600000548FFF701FE00200449087000F00AF8C1
:1016100007F0A6FBD2E70000000C0140000000200C
:1016200000BFFEE710B503F07FFE0A2004F024FCA3
:1016300003F03AFE0A2004F01FFC4FF4206202215E
:10164000002003F0ADFE0A2004F016FC4FF6FD0268
:1016500002210F2003F0A4FE0A2004F00DFC0E4826
:101660000078012804D17122022103F099FE04E0E0
:1016700001220221104603F093FE40F2654202214E
:10168000132003F08DFE0A2004F0F6FB03F02CFE7D
:1016900000F004F810BD00000000002070B5022129
:1016A000702003F061FE322004F0E6FBA2480078CF
:1016B000FFF750FFA0490978491EA04A515C8842B3
:1016C0000CD1104640781146097800EB01209C4966
:1016D0000860084601689BA003F096FE0221712075
:1016E00003F042FE322004F0C7FB93480078FFF776
:1016F00031FF91490978491E904A515C88420CD1CA
:10170000104640781146097800EB012093490860A3
:101710000846016892A003F077FE0221722003F0D0
:1017200023FE322004F0A8FB83480078FFF712FF65
:1017300081490978491E814A515C88420CD1104682
:1017400040781146097800EB01208B490860084673
:1017500001688AA003F058FE0221732003F004FE02
:10176000322004F089FB74480078FFF7F3FE7249D9
:101770000978491E714A515C88420CD11046407864
:101780001146097800EB012082490860084601688B
:1017900081A003F039FE0221742003F0E5FD322020
:1017A00004F06AFB64480078FFF7D4FE62490978C8
:1017B000491E624A515C88420CD11046407811465D
:1017C000097800EB01207A4908607248016879A025
:1017D00003F01AFE0221752003F0C6FD322004F04A
:1017E0004BFB55480078FFF7B5FE53490978491E71
:1017F000524A515C88420CD1104640781146097813
:1018000000EB0120714908600846016870A003F0F0
:10181000FBFD0221762003F0A7FD322004F02CFB13
:1018200045480078FFF796FE43490978491E434A28
:10183000515C88420CD1104640781146097800EB83
:101840000120694908600846016868A003F0DCFDD2
:101850000221772003F088FD322004F00DFB36488A
:101860000078FFF777FE34490978491E334A515C06
:1018700088420CD1104640781146097800EB0120CF
:1018800060490860084601685FA003F0BDFD0221C1
:101890006F2003F069FD322004F0EEFA264800784C
:1018A000FFF758FE24490978491E244A515C8842B2
:1018B0000CD1104640781146097800EB01205849B8
:1018C00008600846016857A003F09EFD00251C48EB
:1018D00000684FF6FF71084420490968084426490A
:1018E000096808442B4909680844314909680844D3
:1018F0003649096808443C4909680844414909686F
:101900000844C543A8B24B490860084601684AA08C
:1019100003F07AFD4748006841490968884204D1CC
:1019200001244AA003F070FD03E000244BA003F063
:101930006BFD204670BD00002D0000201A02002023
:101940005000002041CDA8B5C0B5E7C1F7D7AABB6C
:10195000BBCFB5CAFD3A25780A200000540000200C
:1019600042CDA8B5C0B5E7C1F7D7AABBBBCFB5CAB2
:10197000FD3A25780A20000058000020B5E7D1B9CB
:10198000CDA8B5C0D7AABBBBCFB5CAFD3A25780A4A
:10199000200000005C00002041CDA8B5C0B9A6C25F
:1019A000CAD7AABBBBCFB5CAFD3A25780A2000002A
:1019B0006000002042CDA8B5C0B9A6C2CAD7AABB54
:1019C000BBCFB5CAFD3A25780A200000640000208C
:1019D000CAD3D4DAB9A6C2CAD7AABBBBCFB5CAFD8F
:1019E0003A25780A200000006800002041CDA8B503
:1019F000C0B5E7C1BFD7AABBBBCFB5CAFD3A2578F2
:101A00000A2000006C00002042CDA8B5C0B5E7C197
:101A1000BFD7AABBBBCFB5CAFD3A25780A200000C4
:101A200070000020CFB5CAFDD0A3D1E9BACD3A25C8
:101A3000780A200074000020BCC6CBE3CFB5CAFDF5
:101A4000D0A3D1E9BACD3A25780A2000D0A3D1E9B4
:101A5000BACDD5FDC8B70D0A20000000D0A3D1E94A
:101A6000BACDB3F6B4ED0D0A2000000008B501218F
:101A70000C2001F08DFB4FF41840ADF80000482019
:101A80008DF8030069460B48FFF728FB2020ADF8CE
:101A9000000010208DF8030069460748FFF71EFB81
:101AA00020210548FFF7AEFB4FF418410148FFF72E
:101AB000ABFB08BD00080140000C014010B5044616
:101AC00014B10120264908702548007878B34FF4F6
:101AD00000612448FFF78DFB58B14FF48051214835
:101AE000FFF787FB28B14FF400411E48FFF781FB49
:101AF000E8B90A2004F0C0F90020194908704FF431
:101B000000611848FFF775FB08B9012010BD4FF4BC
:101B100080511448FFF76DFB08B90220F6E74FF437
:101B200000411048FFF765FBB8B90320EEE7FFE777
:101B30004FF400610B48FFF75CFB01280DD1010356
:101B40000848FFF756FB012807D1C1030548FFF7F6
:101B500050FB012801D1024908700020D6E700009F
:101B600024000020000801407BE00020FFF7A6FFD2
:101B70003C49087008460078012807D1002301225B
:101B800011463948006808F041F80AE03548007805
:101B9000032806D10023012202213348006808F0FF
:101BA00035F832484168002088473048007D00F011
:101BB0008000002852D02D48008A2D49098888428B
:101BC0004CDA2A48408A2A494988884246DA274816
:101BD000018A284800780F3081421CDD2348018AA1
:101BE000244800785030814215DA2048418A224842
:101BF0000078503881420EDD1C48418A1E4800782A
:101C00002D38814207DA0023012211461648006868
:101C100007F0FCFF22E01548018A16480078823060
:101C200081421BDD1148018A12480078C33081428D
:101C300014DA0E48418A10480078503881420DDD90
:101C40000A48418A0C4800782D38814206DA002380
:101C5000012202210448006807F0D8FF052007F0A0
:101C6000AFF982E71C000020140000209001002042
:101C7000382E0020010000200200002030B504466C
:101C8000002514484088401E83B212480088401E38
:101C900082B20021084600F093FA10200E49086035
:101CA0000220091F086000BF08E021120B4801F064
:101CB000A9FFE1B2094801F0A5FF6D1C05480088A5
:101CC000044949884843A842EFD810200249091F17
:101CD000086030BD382E002014080140003001405B
:101CE0002DE9FF4F85B081468A460020049003907D
:101CF0000798A0EB09050898A0EB0A06CDF8089014
:101D0000CDF804A0002D01DD012705E00DB9002765
:101D100002E04FF0FF376D42002E02DD4FF0010868
:101D200006E016B94FF0000802E04FF0FF387642A7
:101D3000B54201DD2C4600E034464FF0000B21E0B7
:101D4000019A91B2029A90B200F022F804982844C5
:101D500004900398304403900498A04205DD049851
:101D6000001B04900298384402900398A04205DDBD
:101D70000398001B03900198404401900BF101006F
:101D80001FFA80FB601C8345DADD09B0BDE8F08FE7
:101D900030B504460D462946204600F0DFF91020F4
:101DA0000A4908600220091F0860094800880112DA
:101DB000084801F027FF06480178064801F022FF95
:101DC00010200249091F086030BD000014080140BE
:101DD000880100200030014000B503461020094969
:101DE00008600220091F08601912074801F00AFF65
:101DF000D9B2054801F006FF10200249091F08600A
:101E000000BD000014080140003001402DE9F04100
:101E100004460D4616461F462B46324629462046A6
:101E2000FFF75EFF3B46224629462046FFF758FF54
:101E30003B46324639462046FFF752FF3B46324684
:101E400029463046FFF74CFFBDE8F0812DE9F84FF9
:101E500006460F4614461D46DDF82880A01B401C90
:101E60001FFA80FBE81B401C80B20090681E83B202
:101E7000601E82B23946304600F0A2F910201A499D
:101E800008600220091F08604FF0000917E04FF0BA
:101E9000000A0DE04FEA2821144801F0B3FE08F0D3
:101EA000FF01124801F0AEFE0AF101001FFA80FAAC
:101EB00000988245EEDB09F101001FFA80F9D9454F
:101EC000E5DB10200849091F086009484088401ECA
:101ED00083B207480088401E82B20021084600F005
:101EE0006FF9BDE8F88F0000140801400030014090
:101EF000382E002010B501F0F1FD00F01DF9CF20C3
:101F000000F0BEFA002000F0A5FAC12000F0A2FA0D
:101F1000302000F09FFAED2000F0B2FA642000F0CB
:101F200099FA032000F096FA122000F093FA81202B
:101F300000F090FAE82000F0A3FA852000F08AFA79
:101F4000102000F087FA7A2000F084FACB2000F00D
:101F500097FA392000F07EFA2C2000F07BFA00205E
:101F600000F078FA342000F075FA022000F072FADE
:101F7000F72000F085FA202000F06CFAEA2000F04B
:101F80007FFA002000F066FA002000F063FAC0201B
:101F900000F076FA1B2000F05DFAC12000F070FA24
:101FA000012000F057FAC52000F06AFA302000F056
:101FB00051FA302000F04EFAC72000F061FAB72045
:101FC00000F048FA362000F05BFA482000F042FAB0
:101FD0003A2000F055FA552000F03CFAB12000F00C
:101FE0004FFA002000F036FA1A2000F033FAB6203B
:101FF00000F046FA0A2000F02DFAA22000F02AFA9A
:10200000F22000F03DFA002000F024FA262000F033
:1020100037FA012000F01EFAE02000F031FA0F201C
:1020200000F018FA2A2000F015FA282000F012FA21
:10203000082000F00FFA0E2000F00CFA082000F043
:1020400009FA542000F006FAA92000F003FA432010
:1020500000F000FA0A2000F0FDF90F2000F0FAF974
:10206000002000F0F7F9002000F0F4F9002000F063
:10207000F1F9002000F0EEF9E12000F001FA002073
:1020800000F0E8F9152000F0E5F9172000F0E2F97A
:10209000072000F0DFF9112000F0DCF9062000F045
:1020A000D9F92B2000F0D6F9562000F0D3F93C20C6
:1020B00000F0D0F9052000F0CDF9102000F0CAF9A9
:1020C0000F2000F0C7F93F2000F0C4F93F2000F0D6
:1020D000C1F90F2000F0BEF92B2000F0D1F900204B
:1020E00000F0B8F9002000F0B5F9012000F0B2F9D5
:1020F0003F2000F0AFF92A2000F0C2F9002000F0E4
:10210000A9F9002000F0A6F9002000F0A3F9EF20C3
:1021100000F0A0F9112000F0B3F9782003F0ACFE34
:10212000292000F0ADF900F035F8012001490860E0
:1021300010BD00001008014010B54FF400400649E2
:102140004861642003F098FE4FF4004002490861A2
:10215000322003F091FE10BD0010014030B504465E
:102160000D460B49887A00F08BF9201200F072F9C5
:10217000E0B200F06FF90649087B00F081F92812FF
:1021800000F068F9E8B200F065F900F08DF930BDB3
:10219000382E002000B52C200849088100208871C5
:1021A000F02008804FF4A07048802A2048812B201E
:1021B0008881C921362000F07FF900BD382E00202B
:1021C000F0B504460D4616461F461149887A00F0C0
:1021D00057F9201200F03EF9E0B200F03BF930125E
:1021E00000F038F9F0B200F035F90949087B00F049
:1021F00047F9281200F02EF9E8B200F02BF9381256
:1022000000F028F9F8B200F025F900F04DF9F0BD22
:10221000382E00202DE9FF4F83B081468A46934631
:10222000DDE91064404800880290A6F12000C6B2A3
:1022300004EBD47009EB6000401E82B20AEB04008C
:10224000401E83B2514648460194FFF7B9FF1298E9
:1022500050BB002525E00C2C07D106EB4600334986
:1022600001EB800010F8058004E0314800EB061017
:1022700010F8058000270DE008F0010018B158465D
:10228000FFF7AAFD02E00698FFF7A6FD4FEA6808EF
:10229000781CC7B204EBD471B7EB610FECDB681CA0
:1022A000C5B2A542D7DB2DE0002529E00C2C07D1D3
:1022B00006EB46001D4901EB800010F8058004E0A4
:1022C0001B4800EB061010F80580002711E01648A7
:1022D000A0F800B008F0010038B10AEB050291B295
:1022E00009EB070290B2FFF753FD4FEA6808781C2C
:1022F000C7B204EBD471B7EB610FE8DB681CC5B261
:10230000A542D3DB0849029808800A484088401E4D
:1023100083B208480088401E82B200210846FFF7B9
:102320004FFF07B0BDE8F08F8801002040A30008F0
:10233000B4A70008382E00202DE9FF4F83B00746D0
:1023400091461E46109C4FF0000A002543E0701B8A
:10235000401EC1B20A2003F0C5FEB9FBF0F00A210D
:10236000B0FBF1F201FB1208BAF1000F1BD1701E95
:10237000A84218DDB8F1000F13D100202021A34698
:10238000CDE90014029004EBDB71491001FB0571EB
:1023900088B213490B8813490A880499FFF73AFF5A
:1023A00017E04FF0010A002108F13000C0B2A34647
:1023B000CDE90141009004EBDB71491001FB05718F
:1023C00088B207490B8807490A880499FFF722FF5A
:1023D00000BF681CC5B2B542B9DB07B0BDE8F08FDD
:1023E0008A010020880100202DE9FE4306460F46A1
:1023F00015461C46DDF828801DE013480088401E65
:10240000B04204DB10484088401EB84201DABDE803
:10241000FE8320788DE821010C4803880C4802884F
:1024200039463046FFF7F6FE284605EBD07106EB3D
:1024300061018EB2641C20787E2802DC207820287E
:10244000DBDA00BFE3E70000382E00208A0100201D
:102450008801002000B503461020074908600220CB
:10246000091F08601946054801F0CCFB10200249FD
:10247000091F086000BD0000140801400030014041
:1024800000B503461020064908600220086019467E
:10249000044801F0B7FB10200149091F086000BD86
:1024A000140801400030014000B50249087AFFF7E6
:1024B000E7FF00BD382E002030B505460C46284603
:1024C000FFF7DEFFE0B2FFF7C5FF30BD08B5012121
:1024D000102000F05DFE4FF40050ADF80000102019
:1024E0008DF8030003208DF8020069460448FEF7CA
:1024F000F5FD4FF400510248FEF786FE08BD0000CE
:102500000010014010B516481649086008460068DA
:1025100015490860154816490860164816490860AC
:1025200008460068154908601548164908601648AD
:10253000164908600846006815490860154816499C
:10254000086000F04BF8002114A000F0D7F900203B
:102550001F4908701F4908701F49087010BD00000E
:10256000462E0020C0010020C4010020F6320020C9
:10257000C801002022340020CC010020D00100201E
:10258000D2380020D4010020FE390020D8010020DC
:10259000DC010020AE3E0020E00100202F737973A3
:1025A0002F61317459525350334636312F444C43C6
:1025B000532F7468696E672F736572766963652F30
:1025C00070726F70657274792F736574000000000B
:1025D00003020020020200200002002070B501204A
:1025E0007A4908600A207A4908607A480068001D24
:1025F000794909680844801C784909680844784981
:10260000086073480068096844181020754908700C
:1026100000BF2046E11704EB5161C911A4EBC115BD
:10262000E11704EB5161CC11002C01DD45F0800570
:102630006C48664A1268855464480068401C6349C7
:102640000860002CE5DC0021664A604800681154EF
:1026500004215E480068401C11544D215B4800680D
:10266000801C1154512159480068C01C1154542138
:1026700056480068001D115454480068401D11540C
:10268000042152480068801D1154C2214F4800683F
:10269000C01D115400214D48006808301154FF211D
:1026A0004A480068093011544A490868C11700EBCC
:1026B0001161C1F307224B4B444909680A315A544E
:1026C00044490868C11700EB11610912A0EB012110
:1026D000CAB23E4909680B315A541A463B49096847
:1026E0000C3150183B490A683F49FDF767FD3A49EC
:1026F0000868C11700EB1161C1F30722334909686B
:102700000C31344B1B681944364B5A543249086813
:10271000C11700EB11610912A0EB0121CAB22B49CC
:1027200009680D312B4B1B6819442E4B5A5427490D
:1027300009680E31274A126811441A46881826493A
:102740000A682A49FDF73AFD24490868C11700EBD9
:102750001161C1F307221D4909680E311D4B1B6829
:1027600019441D4B1B6819441E4B5A541B490868D9
:10277000C11700EB11610912A0EB0121CAB2134984
:1027800009680F31134B1B681944134B1B6819441C
:10279000144B5A540D49096810310E4A12681144FD
:1027A0000D4A126811441A4688180C490A681049E3
:1027B000FDF704FD05480068054A12681044084A00
:1027C00012688118074802F0B9FB70BDF4010020BF
:1027D000F8010020E4010020E8010020EC010020C5
:1027E000FC010020DA410020DA3F00205A4000209E
:1027F000DA40002010B5C02004490870002048705D
:102800000221024802F09AFB10BD0000DA410020CC
:102810002DE9F047054688461646012033490860F1
:102820002846FDF7EFFC801C3149086031480660FE
:10283000084600682F490968441830202E4908705E
:1028400000BF2046E11704EB5161C911A4EBC11789
:10285000E11704EB5161CC11002C01DD47F080073A
:102860002548224A1268875420480068401C1F49A6
:102870000860002CE5DC2846FDF7C4FCC0F3072106
:102880001D4A1A48006811542846FDF7BBFCC1B226
:10289000194A16480068401C11542846FDF7B2FC3E
:1028A0008146154A11490968891C50184A4629462B
:1028B000FDF784FC2846FDF7A5FC0C490968891C36
:1028C00008440D4900EB0109324641464846FDF7F0
:1028D00075FC06480068064A12681044054A1268EA
:1028E0008118054802F02AFBBDE8F087F4010020BA
:1028F000F8010020FC010020DA41002070B50446F8
:102900000D4602201F4908601F4908602046FDF758
:1029100079FCC01C1D49086082201D4908701A48B6
:1029200000781A49097808441949487000208870CD
:102930000120C8702046FDF765FC000A14490871A3
:102940002046FDF75FFC124948712046FDF75AFC0E
:102950000646324621460E48801DFDF72FFC2046D4
:10296000FDF750FC801D0A490D5406480068064AD0
:1029700012681044054A12688118054802F0DEFA10
:1029800070BD0000F4010020F8010020FC010020CF
:10299000DA41002000BFFEE77047000070B500215B
:1029A00000230F22C47804B3154C246804F4E064B7
:1029B000C4F5E064210AC1F10403CA40447804FA72
:1029C00003F184781440214309010E4C0678A15587
:1029D000047804F01F050124AC4005786D11AD00AA
:1029E00005F1E025C5F8004109E0047804F01F0571
:1029F0000124AC40044D0678761145F8264070BDA0
:102A00000CED00E000E400E080E100E00249014359
:102A1000024A1160704700000000FA050CED00E06A
:102A20008AB0142006900020FFF728F90120102119
:102A3000FEA2CDE900210290FE480078463880B21F
:102A400000231F2201460590FB480078193001F051
:102A50005FF901201021F9A2CDE900210290F5488B
:102A60000078463880B200231F2201460590F248C4
:102A700000788C3001F04CF94EF65B700090F14814
:102A800000881E230246002105900846FFF7DEF964
:102A900001201821ECA24CF21863CDE9002102902C
:102AA0001F220146322001F033F901201021EAA251
:102AB000CDE900210290EC48007800EB4000DD49B0
:102AC000097801EB400000231F2201460590DA48F7
:102AD000007801F01DF901201021E4A2CDE90021C8
:102AE0000290E148007800EB8000D2490978084460
:102AF00000231F2201460590CF48007801F008F915
:102B000001201021DCA2CDE900210290D6480078F6
:102B1000C849097801EB800000231F220146059077
:102B2000C548007801F0F4F801201021D5A2CDE9C4
:102B300000210290CC48007800EB4000BD490978A4
:102B4000084400231F2201460590BB48007801F08D
:102B5000DFF801201021CEA2CDE900210290C24869
:102B60000078B449097801EB400000231F22014698
:102B70000590B148007801F0CBF801201021C7A2E0
:102B8000CDE900210290B8480078AA4909780844A4
:102B900000231F2201460590A748007801F0B8F8ED
:102BA00001201021C0A20023CDE9002102901F22A4
:102BB000A0480178A048007801F0AAF8012010216F
:102BC000BBA20023CDE90021029048F21F429948A0
:102BD000017899480078BE3001F09AF80120102160
:102BE000B5A2CDE9002102909F480078914909786B
:102BF00001EB4000002348F21F42014605908E4839
:102C00000078BE3001F084F801201021AAA2CDE99D
:102C1000002102909448007800EB40008549097833
:102C20000844002348F21F4201460590824800787C
:102C3000BE3001F06DF801201021A0A2CDE90021E5
:102C40000290894800787B49097801EB80000023D5
:102C500048F21F420146059077480078BE3001F0E7
:102C600057F80120102196A2CDE9002102907E485C
:102C7000007800EB80006F4909780844002348F28F
:102C80001F42014605906C480078BE3001F040F8C4
:102C9000684801780698084405906A4800880490BE
:102CA0006448017806980844039001460020DDE955
:102CB0000423FFF715F85F480178069801446A4835
:102CC0000078084405905B480178069801446648FE
:102CD0000078084403905B48008804900246002076
:102CE000059B0399FEF7FCFF5248017806980144C2
:102CF0005D48007801EB400005904E480178069849
:102D000001445948007801EB400003904D48008889
:102D1000049002460020059B0399FEF7E1FF454819
:102D20000178069808445049097801EB41010844AC
:102D3000059040480178069808444B49097801EB12
:102D40004101084403903F48008804900246002057
:102D5000059B0399FEF7C4FF3648017806980144A5
:102D60004148007801EB80000590324801780698D0
:102D700001443D48007801EB800003903148008811
:102D8000049002460020059B0399FEF7A9FF2948FD
:102D90000178069808443449097801EB8101084418
:102DA000059024480178069808442F49097801EBDA
:102DB00081010844039023480088049002460020C3
:102DC000059B0399FEF78CFF1A4801780698084482
:102DD0002549097801EB410100EB410005901548B8
:102DE0000178069808442049097801EB410100EB7D
:102DF0004100039013480088049002460020059B80
:102E00000399FEF76DFF0B480178069808441649B0
:102E10000978C1EBC101084405900648017806987D
:102E2000084411490978C1EBC1014BE04443B2E2C7
:102E3000C1BF000002000020010000204143B2E2B7
:102E4000C1BF0000382E0020B5E7C1A6B2CECAFD32
:102E5000B2E2C1BF00000000B5E7D1B946726571AA
:102E600075656E637900000003000020B5E7C1F7C7
:102E7000D3D0D0A7D6B50000B5E7D1B9D3D0D0A76D
:102E8000D6B50000D3D0B9A6B9A6C2CA00000000CA
:102E9000CEDEB9A6B9A6C2CA00000000B9A6C2CA51
:102EA000D2F2CAFD00000000B5E7C4DC000000005B
:102EB0006B772E68000000005700000056000000ED
:102EC000410000000844039099480088049002469D
:102ED0000020059B0399FEF703FF954800880590A5
:102EE00000EBD0704010029091480088049000EBF5
:102EF000D070401001908E484088034603901E21F8
:102F0000DDE90102FEF7ECFE8A4800782D3880B238
:102F1000059088480078503880B20490864802783E
:102F2000503200780F30DDE90413FEF76FFF81485F
:102F300000782D3880B205907E480078503880B2F5
:102F400004907D480278C33200788230DDE90413B2
:102F5000FEF75CFFEAE0FDF7A9FF78480068FDF79F
:102F600062FB02460B46CDE9040175A107A802F0F9
:102F70005BFA0020102107AA0346CDE90021029048
:102F800048F21F426B4801786B4800788C3000F0A3
:102F9000BFFE6D480068FDF746FB02460B46CDE9D3
:102FA000040167A107A802F03FFA0021102007AA38
:102FB000CDE900200291654800785E49097808440F
:102FC000002348F21F42014605905B4800788C3090
:102FD00000F09EFE0022134659A107A802F024FA31
:102FE0000020102107AACDE900210290574800785F
:102FF0005049097801EB4000002348F21F42014686
:1030000005904D4800788C3000F082FE50480068F2
:10301000FDF709FB02460B46CDE9040148A107A8CC
:1030200002F002FA0020102107AACDE90021029047
:103030004648007800EB40003E49097808440023E8
:1030400048F21F42014605903B4800788C3000F062
:103050005FFE40480068FDF7E6FA02460B46CDE900
:1030600004013DA107A802F0DFF90020102107AA02
:10307000CDE900210290354800782E49097801EB0E
:103080008000002348F21F42014605902A4800783C
:103090008C3000F03DFE32480068FDF7C4FA02466D
:1030A0000B46CDE904012FA107A802F0BDF90020CD
:1030B000102107AACDE9002102902448007800EBF6
:1030C00080001C4909780844002348F21F42014649
:1030D0000590194800788C3000F01AFE23480068EB
:1030E000FDF7A1FA02460B46CDE9040114A107A899
:1030F00002F09AF90021102007AACDE900200291E0
:103100001248007800EB40000A49097801EB4000C2
:10311000002348F21F4201460590074800788C3092
:1031200000F0F6FD4FF4FA7005F04AFF13E70000D7
:10313000382E00200200002001000020B8000020EE
:1031400025352E3366000000C0000020030000205B
:10315000B4000020AC00002025342E3366000000AF
:10316000B000002025352E3466000000D00000207D
:1031700029B1064AD2690243044BDA6104E0034AEA
:10318000D2698243014BDA617047000000100240AF
:1031900029B1064A92690243044B9A6104E0034A4A
:1031A00092698243014B9A6170470000001002400F
:1031B00030B500210022002400232D4D6D6805F05C
:1031C0000C0121B1042905D0082923D105E0294D9E
:1031D000056022E0274D05601FE0254D6D6805F470
:1031E0007012234D6D6805F48034022505EB924280
:1031F0001CB9214D554305600BE01D4D6D6805F46C
:1032000000351DB11C4D5543056002E0194D554375
:10321000056002E0174D056000BF00BF144D6D68EA
:1032200005F0F0010909154D6B5C0568DD4045604E
:103230000F4D6D6805F4E061090A104D6B5C45683F
:10324000DD4085600A4D6D6805F46051C90A0B4D7B
:103250006B5C4568DD40C560054D6D6805F4404117
:10326000890B074D6B5CC568B5FBF3F5056130BD97
:103270000010024000127A0000093D00F800002012
:10328000080100202DE9F0410321282002F06CF80C
:103290000A2002F0F1FD4D480078FEF75BF94B493A
:1032A0000978491E4A4A515C88420CD11046007880
:1032B00000041146497800EB012011468978084442
:1032C0004449086005E044A002F09EF801204A4904
:1032D00008700221084602F047F80A2002F0CCFDEF
:1032E0003A480078FEF736F938490978491E384AD5
:1032F000515C884208D1104640781146097800EBAD
:1033000001203E49086005E03DA002F07DF8012063
:10331000394908702F480068FDF72DF904463F48E9
:103320000068FDF728F905462146FCF7CAFF044668
:103330004FF09C412046FCF7F6FF044638480078E1
:10334000012818D12046FDF76EF90546354A364B5F
:10335000FDF799F80746FDF7A9F904462046FDF761
:1033600062F90546314A324BFDF78DF80746FDF705
:103370009DF9044617E02046FDF755F905462D4A0C
:103380002D4BFDF780F80746FDF790F904462046DF
:10339000FDF749F90546294A294BFDF774F8074618
:1033A000FDF784F904462046FDF73DF90546254A18
:1033B000254BFCF7F6FF0746FDF778F9044623484E
:1033C0000460006822490860BDE8F0812D000020FB
:1033D0001A0200209800002041CDA8B5C0D3D0B972
:1033E000A6B5E7C1BFBCC4B4E6C6F7B6C1C8A1B3B1
:1033F000F6B4ED0D0A000000310000204C00002062
:103400004846434F4E5354B3A3CAFDBCC4B4E6C6AA
:10341000F7B6C1C8A1B3F6B4ED0D0A0068000020EC
:1034200000000020AC8BDB6800A07E409A9999993F
:1034300099193440FCA9F1D24D62E83FE3A59BC441
:1034400020B0F03F6ABC74931804EA3FB800002033
:10345000BC00002070B50221232001F085FF0A2066
:1034600002F00AFD20480078FEF774F81E4909783A
:10347000491E1E4A515C884208D1104640781146C8
:10348000097800EB01201A49086005E019A001F055
:10349000BBFF01201E49087015480068FDF76BF856
:1034A000054629464FF07E50FCF73DFF044619487B
:1034B000007801280AD118492046FCF734FF044659
:1034C00015492046FCF72FFF04460AE01349204621
:1034D000FCF7F7FE04464FF082412046FCF723FF3D
:1034E00004460F48046070BD2D0000201A02002021
:1034F0009C00002041CDA8B5C0C6B5C2CABCC4B4AA
:10350000E6C6F7B6C1C8A1B3F6B4ED0D0A000000D7
:1035100031000020000000200050C347647A5A4A5E
:10352000D00000202DE9F0410321242001F01CFFF0
:103530000A2002F0A1FC38480078FEF70BF8364963
:103540000978491E354A515C88420CD110460078F2
:1035500000041146497800EB01201146897808449F
:103560002F49086005E02FA001F04EFF01203449EB
:1035700008702B48006800F40000B0F5000F03D17C
:1035800000203049086044E025480068FCF7F3FF5C
:1035900004462D480068FCF7EEFF05462146FCF77F
:1035A00090FE04464FF096412046FCF7BCFE0446D0
:1035B0002648007801280CD12046FDF734F805464E
:1035C000234A244BFCF75FFF0746FDF76FF80446DC
:1035D0000BE02046FDF727F805461F4A1F4BFCF776
:1035E00052FF0746FDF762F804461D492046FCF7E6
:1035F0009AFE04462046FDF716F805464FF066325F
:10360000184BFCF7CEFE0746FDF750F804460D4870
:103610000460BDE8F08100002D0000201A020020A7
:103620008400002041CDA8B5C0B5E7C1F7BCC4B443
:10363000E6C6F7B6C1C8A1B3F6B4ED0D0A000000A6
:1036400031000020B00000205000002000000020C9
:10365000AC8BDB6800A07E4074D2FBC6D79EC33F14
:1036600000007A446666EE3F2DE9F04704212C20E5
:1036700001F07AFE0A2002F0FFFB41480078FDF7D6
:1036800069FF3F490978491E3E4A515C884210D182
:103690001046007800061146497800EB01401146BB
:1036A000897800EB01201146C97808443649086042
:1036B00005E036A001F0A8FE01203B490870324821
:1036C0000068B0F1004F07D92F480068C043FCF7ED
:1036D00052FF81464C4604E02B480068FCF74BFF44
:1036E000044632480068FCF746FF05462146FCF7D1
:1036F000E8FD04464FF09E412046FCF714FE0446C8
:103700002B480078012818D12046FCF78CFF07468B
:10371000284A294BFCF7B7FE0546FCF7C7FF0446CD
:103720002046FCF780FF0746244A254BFCF7ABFEFA
:103730000546FCF7BBFF044617E02046FCF773FF85
:103740000746204A204BFCF79EFE0546FCF7AEFFDD
:1037500004462046FCF767FF05461C4A1C4BFCF755
:1037600092FE0746FCF7A2FF04461A48016820466D
:10377000FCF7A7FD044618480460BDE8F087000088
:103780002D0000201A0200208C00002041CDA8B599
:10379000C0B9A6C2CABCC4B4E6C6F7B6C1C8A1B314
:1037A000F6B4ED0D0A000000310000205C0000209E
:1037B00000000020AC8BDB6800A07E409A999999AC
:1037C00099193440FCA9F1D24D62E83FE3A59BC4AE
:1037D00020B0F03FD4000020B400002070B50321D9
:1037E000272001F0C1FD0A2002F046FB17480078AF
:1037F000FDF7B0FE15490978491E154A515C88420B
:103800000CD11046007800041146497800EB0120E5
:103810001146897808440F49086002E001200E49EA
:1038200008700C4800680D49884202D94FF07E5458
:1038300008E0084800680A49B0FBF1F52846FCF7A3
:103840009AFE04460748046070BD00002D00002069
:103850001A020020940000203100002000FD7F00AB
:10386000FFFF7F00C00000202DE9F05F04212E2023
:1038700001F07AFD0A2002F0FFFA25480078FDF7F2
:1038800069FE23490978491E224A515C884210D1B9
:103890001046007800061146497800EB01401146B9
:1038A000897800EB01201146C97808441A4908605C
:1038B00005E01AA001F0A8FD01201F490870164874
:1038C0000068FCF758FE81461C4801681C480068E7
:1038D000FCF729FD1B490860194801680068FCF7DE
:1038E000F0FC8246174801680068FCF7EAFC834652
:1038F0005146FCF7E0FC0446FCF795FE074603F052
:103900009FFA0546FCF7D2FE0F490860BDE8F09F1C
:103910002D0000201A0200209000002041CDA8B503
:10392000C0B9A6C2CABCC4B4E6C6F7B6C1C8A1B382
:10393000F6B4ED0D0A00000031000020C0000020A8
:10394000B4000020C4000020C80000202DE9F04190
:103950000321262001F008FD0A2002F08DFA4548D7
:103960000078FDF7F7FD43490978491E424A515C4A
:1039700088420CD11046007800041146497800EBCB
:1039800001201146897808443C49086005E03CA0C4
:1039900001F03AFD0120414908703848006800F400
:1039A0000000B0F5000F03D100203D4908605FE042
:1039B00032480068FCF7DFFD04463A480068FCF72F
:1039C000DAFD05462146FCF77CFC04464FF09541A4
:1039D0002046FCF7A8FC044633480078012839D17A
:1039E0002046FCF720FE0546304A314BFCF74BFDE4
:1039F0000746FCF75BFE04462E492046FCF793FC85
:103A000004462D492046FCF777FE0CD82046FCF7EB
:103A10000AFE0546294A2A4BFCF7C3FC0746FCF779
:103A200045FE044622E027492046FCF75BFE1DD2F6
:103A300025492046FCF760FE18D22046FCF7F3FD2E
:103A40000546224A224BFCF7ACFC0746FCF72EFE4B
:103A500004460BE02046FCF7E6FD05461D4A1E4BDA
:103A6000FCF711FD0746FCF721FE04460C480460F4
:103A7000BDE8F0812D0000201A02002088000020FF
:103A8000B5E7D1B9CDA8B5C0BCC4B4E6C6F7B6C1D8
:103A9000C8A1B3F6B4ED0D0A00000000310000200B
:103AA000AC00002058000020000000209A9999994D
:103AB000991934400000C8420000A041D7A3703DCE
:103AC0000AD7EF3F000020410000A040AAF1D24DEC
:103AD0006210F03F355EBA490C02F13F00B587B085
:103AE00001211520FFF754FBA020ADF804000320AE
:103AF0008DF8060018208DF8070001A92948FDF768
:103B0000EDFA4020ADF8040048208DF807000320AE
:103B10008DF8060001A92348FDF7E0FA1720ADF85B
:103B2000040003208DF8060010208DF8070001A97D
:103B30001C48FDF7D3FA4FF40040ADF80400032011
:103B40008DF8060010208DF8070001A91648FDF732
:103B5000C5FA01210803FFF71BFB0020ADF80800A0
:103B60004FF48270ADF80A000020ADF80C0002207E
:103B7000ADF80E000120ADF810004002ADF81200C3
:103B80000020ADF81400ADF816000720ADF81800BD
:103B900002A9064800F018F80121044800F008F8CE
:103BA00007B000BD00080140001001400030014096
:103BB00021B1028842F04002028004E002884FF600
:103BC000BF731A400280704710B50022028802F4C9
:103BD00041520B884C8823438C882343CC88234351
:103BE0000C8923434C8923438C892343CC89234369
:103BF0001A430280838B4FF2FF74234083830B8A26
:103C0000038210BD024600BF108900F002000028A8
:103C1000FAD0918100BF108900F001000028FAD08D
:103C20009089C0B2704710B500F002F810BD0000D6
:103C30000CB50020019000903348006840F48030BB
:103C40003149086000BF3048006800F4003000903F
:103C50000198401C0190009818B90198B0F5A06F28
:103C6000F1D12948006800F4003010B10120009023
:103C700001E0002000900098012843D1234800680B
:103C800040F01000214908600846006820F0030059
:103C900008600846006840F0020008601A48406862
:103CA000194948600846406848600846406840F442
:103CB000806048600846406820F47C1048600846F0
:103CC000406840F4E81048600846006840F08070A2
:103CD000086000BF0C48006800F000700028F9D0B0
:103CE0000948406820F003000749486008464068DA
:103CF00040F00200486000BF0348406800F00C003C
:103D00000828F9D10CBD000000100240002002403C
:103D10002DE9FF4F83B0064688469146DDE91147FD
:103D2000109DB2464FF0000B71E0BBF1000F40D187
:103D300004EBD471384A1288A2EB6101B14204DB72
:103D400035494988091B414502DA07B0BDE8F08FC3
:103D50002878802802DD4FF0010B58E028780D28E4
:103D600006D108EB04001FFA80F856466D1C1EE0D1
:103D7000102C0DDD102128788DE883004A4641463D
:103D80003046069BFEF746FA06F1080086B20EE0C2
:103D900028788DE891004A4641463046069BFEF75A
:103DA00039FA204604EBD07106EB61018EB26D1C2E
:103DB0002DE019480088001BB04204DB16484088FB
:103DC000001B404500DAC0E74FF0000B202C08D163
:103DD000CDE900574A4641463046069BFDF728FB91
:103DE00012E0182C08D1CDE900574A46414630462A
:103DF000069BFDF78FFA07E0CDE900574A4641469A
:103E00003046069BFDF702FAAD1C301986B22878C1
:103E100000288AD100BF98E7382E002001460020F4
:103E20000DE000BF074A128802F04002002AF9D0D4
:103E3000054A125C034B1B1D1A80421CD0B28842FB
:103E4000EFDB70470044004010020020042808D136
:103E50004FF0E021096941F004014FF0E0221161C7
:103E600007E04FF0E021096921F004014FF0E02262
:103E70001161704710B505F053FF012801D005F01E
:103E80004BFB10BD10B51348006840F0010011490C
:103E9000086008464068104908400E4948600846D6
:103EA00000680E4908400B4908600846006820F485
:103EB000802008600846406820F4FE0048604FF407
:103EC0001F008860FFF7AFFE4FF0006004490860F4
:103ED00010BD0000001002400000FFF8FFFFF6FEDA
:103EE00008ED00E010B50121880700F0A2F840B10C
:103EF00004480068401C034908600121880700F05D
:103F000089F810BD2800002010B501211D4800F0DF
:103F100090F8012835D11C481C4902681C480068EB
:103F2000801CFCF74BF918480088000A18490968FA
:103F300008701548007816490968487014480068E8
:103F400000F5967012490860084600681149096832
:103F5000884202D110480E49086000200A490860D2
:103F600000214FF0804000F07EF80021054800F06D
:103F700054F80021034800F076F80121014800F0D0
:103F800049F810BD00040040080200200847002046
:103F9000C0010020C8010020462E00207FB5054644
:103FA0000C4601210220FFF7E3F8ADF80850ADF808
:103FB00004400020ADF80600ADF80A0001A90E4843
:103FC00000F054F8012211460B4800F043F801219B
:103FD000094800F022F81D208DF8000006208DF819
:103FE000010000208DF8020001208DF803006846D2
:103FF000FEF7D4FC7FBD00000004004010B5012195
:10400000034800F016F80121014800F003F810BD44
:1040100000080040CA430282704721B1028842F082
:104020000102028004E002884FF6FE731A4002800B
:10403000704730B50246002000230024158A05EAA7
:104040000103958905EA010413B10CB1012000E0D8
:10405000002030BD1AB183890B43838102E083893C
:104060008B4383817047818470470000002202885F
:104070001D4B98420ED01D4B98420BD0B0F1804F93
:1040800008D01B4B984205D01A4B984202D01A4BCD
:10409000984204D14FF68F731A404B881A43174B3E
:1040A000984207D0164B984204D04FF6FF431A406F
:1040B000CB881A4302808B8883850B8803850A4B43
:1040C00098420BD0094B984208D00E4B984205D02D
:1040D0000D4B984202D00D4B984201D10B7A0386CA
:1040E0000123838270470000002C0140003401400E
:1040F0000004004000080040000C00400010004098
:1041000000140040004001400044014000480140CC
:104110002DE9F84F04460D4617461E46DDE90CAB67
:10412000DDE90A894FF478404A49088001204AA312
:104130001022A02100902820FEF756F9012047A365
:104140001022A02100907820FEF74EF9012044A310
:104150001022B42100902820FEF746F9012041A347
:104160001022B42100907820FEF73EF901203EA3F2
:104170001022C82100902820FEF736F901203BA329
:104180001022C82100907820FEF72EF9012038A3D4
:104190001022DC2100902820FEF726F9012035A30B
:1041A0001022DC2100907820FEF71EF9012032A3B6
:1041B0001022F02100902820FEF716F91020042389
:1041C0002246A02100904020FEF7B6F810200423DC
:1041D0002A46A02100909020FEF7AEF8102004237C
:1041E0003A46B42100904020FEF7A6F810200423A0
:1041F0003246B42100909020FEF79EF81020042350
:104200004246C82100904020FEF796F81020042373
:104210004A46C82100909020FEF78EF81020042313
:104220005246DC2100904020FEF786F8102004233F
:104230005A46DC2100909020FEF77EF81020009076
:104240000F480188032360200E9AFEF775F8BDE839
:10425000F88F00008801002078313A0079313A0067
:1042600078323A0079323A0078333A0079333A00BA
:1042700078343A0079343A006661632069733A0011
:10428000382E002000B595B0002010900A901090B4
:104290001F20F94908804FF6FF70F8490880FDF7A4
:1042A000EDFC4FF47840F44908804FF6FF70FDF7BD
:1042B000E5FC0020F04908800120F1A3102228210C
:1042C00000900A20FEF790F80120F5A31022382173
:1042D00000900A20FEF788F80120FAA31022482156
:1042E00000900A20FEF780F80120FEA3102258213A
:1042F00000900A20FEF778F84FF47842142108461F
:1043000000F020FC0020FE4908758861EFE3FC48BE
:1043100040680990012009998847F948007D00F01C
:10432000C00040287AD100200A90F548007D20F096
:104330004000F34908750846018A11AA109822F82E
:104340002010EF48418A109802EB800041801098BD
:10435000401CC0B210901098012806D0022815D039
:10436000032829D0042810D141E04FF6FF72142110
:10437000084600F0E7FBE3480088143880B24FF4A9
:1043800078421421099000F0DDFBA7E3DD480088A6
:10439000143880B24FF6FF721421099000F0D2FB5E
:1043A000D8484088143880B24FF4784201460990CA
:1043B000142000F0C7FB91E3D2484088143880B243
:1043C0004FF6FF7201460990142000F0BBFBCD4868
:1043D0004088143880B20990CA480088143880B2E6
:1043E0004FF478420890099900F0ACFB76E3BDF8F1
:1043F0004400BDF84810401A0990002801DB0998D4
:1044000001E0099840420D90BDF8461011A8C088FF
:10441000081A0990002802DB099802E05FE3099876
:1044200040420C900D9840430D900C9840430C90E6
:10443000DDE90C1008440590FCF7A2F8CDE906016F
:1044400002F0FEFCCDE90801FCF7D4F880B20F9031
:10445000BDF84C00BDF85010401A0990002801DB4F
:10446000099801E0099840420D9011A84189C0893E
:10447000081A0990002801DB099801E009984042D8
:104480000C900D9840430D900C9840430C90DDE942
:104490000C1008440590FCF773F8CDE9060102F012
:1044A000CFFCCDE90801FCF7A5F880B20E900E987C
:1044B000FCF761F809900F98FCF75DF808900999EE
:1044C000FBF731FF0B900B98FCF7ADF88E4A8F4B42
:1044D000CDE90801FCF7BAF80DD30B98FCF7A3F867
:1044E0008B4A8C4BCDE90801FCF7C8F803D30F9831
:1044F00008B10E98E8BB002010908248408814381C
:1045000080B209907F480088143880B24FF6FF725D
:104510000890099900F016FB4FF4784214210846E0
:1045200000F010FB7C490B98FBF7CBFE0890FCF7E2
:104530004DF880B211A90990C989BDF8502011AB7E
:104540005B89CDE90132CDE90310BDF84C00009044
:1045500011A8C0880890BDF848000790BDF8460033
:104560000690BDF84400059006A90EC9FFF7D0FDDE
:10457000BDE2FFE7BDF84400BDF84C10401A0990B9
:10458000002801DB099801E0099840420D90BDF830
:10459000461011A84089081A0990002801DB0998E3
:1045A00001E0099840420C900D9840430D900C9802
:1045B00040430C90DDE90C1008440590FBF7E0FF48
:1045C000CDE9060102F03CFCCDE90801FCF712F848
:1045D00080B20F90BDF84800BDF85010401A099005
:1045E000002801DB099801E0099840420D9011A8CC
:1045F000C188C089081A0990002801DB099801E0E8
:10460000099840420C900D9840430D900C984043FF
:104610000C90DDE90C1008440590FBF7B1FFCDE9E3
:10462000060102F00DFCCDE90801FBF7E3FF80B2C3
:104630000E900E98FBF79FFF09900F98FBF79BFFDA
:1046400008900999FBF76FFE0B900B98FBF7EBFFB7
:104650002D4A2E4BCDE90801FBF7F8FF09D30B9843
:10466000FBF7E1FF2A4A2B4BCDE90801FCF706F8DE
:104670007DD20020109051E0880100208A010020A6
:10468000506C65617365207573652074686520736F
:1046900074796C757320636C69636B207468650052
:1046A00063726F7373206F6E20746865207363721A
:1046B00065656E2E5468652063726F737320776929
:1046C0006C6C0000616C77617973206D6F7665208A
:1046D000756E74696C207468652073637265656EAD
:1046E0002000000061646A7573746D656E742069E2
:1046F0007320636F6D706C657465642E000000003C
:1047000090010020382E00209A9999999999E93FB3
:10471000CDCCCCCCCCCCF03F0000C842F448408893
:10472000143880B20990F2480088143880B24FF6ED
:10473000FF720890099900F005FA4FF478421421AD
:10474000084600F0FFF9EB490B98FBF7BAFD08901B
:10475000FBF73CFF80B211A90990CA89BDF850103F
:1047600011AB5B89CDE90131CDE9032000E013E015
:10477000BDF84C00009011A8C0880890BDF8480012
:104780000790BDF846000690BDF84400059006A9C4
:104790000EC9FFF7BDFCAAE1BDF84800BDF84C10FA
:1047A000401A0990002801DB099801E0099840426D
:1047B0000D9011A8C1884089081A0990002801DBD2
:1047C000099801E0099840420C900D9840430D90E3
:1047D0000C9840430C90DDE90C1008440590FBF761
:1047E000CFFECDE9060102F02BFBCDE90801FBF776
:1047F00001FF80B20F90BDF84400BDF85010401A80
:104800000990002801DB099801E0099840420D90C9
:10481000BDF8461011A8C089081A0990002801DBCC
:10482000099801E0099840420C900D9840430D9082
:104830000C9840430C90DDE90C1008440590FBF700
:104840009FFECDE9060102F0FBFACDE90801FBF776
:10485000D1FE80B20E900E98FBF78DFE09900F9856
:10486000FBF789FE08900999FBF75DFD0B900B980B
:10487000FBF7D9FEA04AA14BCDE90801FBF7E6FE04
:1048800009D30B98FBF7CFFE9D4A9E4BCDE908015B
:10489000FBF7F4FE3ED20020109095484088143873
:1048A00080B2099092480088143880B24FF6FF72A7
:1048B0000890099900F046F94FF47842142108460F
:1048C00000F040F98B490B98FBF7FBFC0890FBF7D5
:1048D0007DFE80B20146099011A8C289BDF8500042
:1048E00011AB5B89CDE90130CDE90321BDF84C0066
:1048F000009011A8C0880890BDF848000790BDF846
:1049000046000690BDF84400059006A90EC9FFF7C1
:10491000FFFBECE0BDF84800BDF84410401A0790DA
:10492000FBF720FE09907248008828380790FBF7B3
:1049300019FE08900999FBF7F6FC73498861BDF8E8
:104940004800BDF8441008440490FBF70BFE0590A6
:104950006D488069014604900598FBF7B2FC07900A
:10496000634800880590FBF706FE06900799FBF761
:10497000A2FC4FF080410890FBF7D5FC0990FBF7B3
:104980000CFE00B26049088411A84089BDF84610A9
:10499000401A0790FBF7E6FD0990554840882838F3
:1049A0000790FBF7DFFD08900999FBF7BCFC56491F
:1049B000C86111A84089BDF8461008440490FBF76F
:1049C000D1FD05905048C069014604900598FBF759
:1049D00078FC0790464840880590FBF7CCFD069090
:1049E0000799FBF768FC4FF080410890FBF79BFCB0
:1049F0000990FBF7D2FD00B243494884084680691C
:104A00000790FBF7CAFD0890002801DB089801E039
:104A10000898404202280DDC3B48C0690790FBF72C
:104A2000BCFD0990002801DB099801E0099840428B
:104A300002283ADD002010902D484088143880B2BA
:104A400009902B480088143880B24FF6FF72089006
:104A5000099900F077F84FF478421421084600F0E5
:104A600071F8012029A310221A2100902820FDF7B7
:104A7000BBFC254890F8240008B9012000E0002084
:104A8000214981F82400084690F8240030B1902094
:104A900023490870D0202349087005E0D020204920
:104AA000087090201F49087021E01F201E490880CF
:104AB0004FF6FF70FDF7E2F801201CA310226E21D3
:104AC00000902320FDF790FC4FF47A7001F0D4F9A8
:104AD0004FF6FF70FDF7D2F815B000BD00BF0A20F9
:104AE00001F0CAF90A98401C80B20A9000BF0EE497
:104AF000382E00200000C8429A9999999999E93F67
:104B0000CDCCCCCCCCCCF03F900100205450204EEA
:104B100065656420726561646A75737421000000C4
:104B2000B8010020B901002088010020546F75638E
:104B3000682053637265656E2041646A75737420E2
:104B40004F4B2100F8B504460D4616461A4806801C
:104B500004F10D018AB2193988B22B462946FDF7B6
:104B6000BFF805F10D0083B2193881B22246204604
:104B7000FDF7B6F86A1C91B2621C90B2FDF708F915
:104B80006A1C91B2621E90B2FDF702F96A1E91B2E0
:104B9000621C90B2FDF7FCF86A1E91B2621E90B2E0
:104BA000FDF7F6F800200623009003480288294606
:104BB000204601F0B3F9F8BD8801002008B50121B5
:104BC0001920FEF7E5FA4FF43040ADF80000102050
:104BD0008DF8030003208DF8020069460A48FCF7AF
:104BE0007DFA4FF48440ADF8000048208DF80300B2
:104BF00069460548FCF772FA0449881E00F088F8F7
:104C0000FFF740FB012008BD000C0140A20100207D
:104C100070B506460025002400201D4908601D4986
:104C2000C1F8BC011A49091F0860304600F066F956
:104C3000062001F041F900201649C1F8B401012015
:104C400001F03AF901201249086000201149C1F829
:104C5000B40100BF12E04FF6FF7000EA44040020E8
:104C60000B49086001200B49C1F8B40108487C38A1
:104C7000006808B1601C84B2681CC5B2102DEADB64
:104C8000241101200249091F0860204670BD000060
:104C9000B4812142008021422DE9FE438046002755
:104CA000002406E04046FFF7B3FF2DF81400601C17
:104CB00084B2052CF6DB002416E0601C85B20FE000
:104CC0003DF814003DF81510884207DD3DF81460EA
:104CD0003DF815002DF814002DF81560681C85B2FC
:104CE000052DEDDB601C84B2042CE6DB00270124DB
:104CF00005E03DF81400384487B2601C84B2042CEF
:104D0000F7DB032097FBF0F086B23046BDE8FE8368
:104D10002DE9F04104460D4607480078FFF7BCFF37
:104D2000064606480078FFF7B7FF074626802F8023
:104D30000120BDE8F0810000B8010020B901002089
:104D40007FB504460D4602A903A8FFF7E1FF06461A
:104D500016B9002004B070BD694601A8FFF7D8FF5E
:104D600006460EB90020F5E7BDF80400BDF80C10AA
:104D7000884206DCBDF80C10BDF8040032308142D8
:104D80000CDBBDF80C00BDF80410884236DCBDF821
:104D90000410BDF80C00323081422FDABDF800005B
:104DA000BDF80810884206DCBDF80810BDF8000008
:104DB000323081420CDBBDF80800BDF8001088429B
:104DC0001CDCBDF80010BDF808003230814215DA55
:104DD000BDF80C10BDF80420881800EBD071C1F3A9
:104DE0004F012180BDF80810BDF80020881800EBA5
:104DF000D071C1F34F0129800120ABE70020A9E762
:104E00002DE9F04104463B480068002853D124B105
:104E10003949881EFFF794FF3CE03749881EFFF7A9
:104E20008FFFB8B334491239B1F92000FBF79AFB70
:104E3000074631491239088AFBF79DFB80462E4808
:104E4000123881694046FBF73CFA06463946FBF7C3
:104E5000E0F90546FBF7BAFB274912390882B1F998
:104E60002200FBF77FFB074623491239488AFBF7EC
:104E700082FB804620481238C1694046FBF721FA80
:104E800006463946FBF7C5F90546FBF79FFB1A496D
:104E90001239488218481238007D00F0800010BB9B
:104EA000C0201549123908750846008A88810846CD
:104EB000408AC88117E010481238007D00F0800059
:104EC00040B10D481238007D20F080000A491239A7
:104ED000087508E00020084912398881C8814FF61A
:104EE000FF700882488204481238007D00F080007C
:104EF000BDE8F08124812142A2010020002100BFF1
:104F000015E000F080021AB101220A4B1A6002E09B
:104F10000022084B1A604206100E0022054B083B87
:104F20001A600122044BC3F8B4214A1CD1B20829EB
:104F3000E7DB7047BC8121420080214270B5054605
:104F40000C462246294613480068801CFBF736F9B8
:104F50002046E11704EB1161090A0E4A126811702C
:104F6000E11704EB11610912A4EB0121094A12684F
:104F700051700848006800F59670064908600846B8
:104F8000006805490968884202D10448014908605F
:104F900070BD0000CC010020D4010020223400208C
:104FA00010B540F225511D4800F0BCF810B31B4865
:104FB00000F074F9C4B21A48008800F40040C8B97F
:104FC0001748008800F4804060B10A2C03D000200C
:104FD0001349088020E01248008840F4004010493E
:104FE000088019E00D2C06D10D48008840F480405F
:104FF0000B49088010E00A480088C0F30D000949F9
:105000000C5407480088401C054908800846008861
:10501000C72801DD0020088010BD000000380140D5
:10502000E00000202402002010B500F001F810BDBF
:105030001148008800F02000E0B10F4800880F48B8
:1050400000780F49097888420FDA0B48001D008864
:105050000C490A4A1278885408480078401C0749CD
:10506000087001200849087004E000200749087012
:105070000249087070470000004400402E000020E4
:105080002D0000201A020020300000202F000020F8
:1050900010B540F22551184800F044F858B31748AD
:1050A000007880B91448001D008820B31248001D04
:1050B00000881349134A1268885412480068401C3B
:1050C0001049086017E00C48001D00880C490D4A83
:1050D000126888540B48006820B901210A48FEF77D
:1050E0009CFF03E000210848FEF7BDFF054800686B
:1050F000401C0449086010BD004800400102002027
:1051000008470020080200200004004021B18289E5
:1051100042F40052828104E082894DF6FF731A4006
:105120008281704770B502460024002300250020CC
:1051300040F66A16B14200D100BFC1F3421501F03A
:105140001F03012606FA03F3012D02D1968933408D
:1051500006E0022D02D1168A334001E0968A3340E0
:105160000C12012606FA04F41688344013B10CB16F
:10517000012000E0002070BDF0B5034600240026A9
:105180000025002040F66A17B94200D100BF18463A
:10519000C1F3421401F01F06012707FA06F5012C9E
:1051A00001D10C3004E0022C01D1103000E01430A9
:1051B0001AB107682F43076002E00768AF43076032
:1051C000F0BD00002DE9F04786B005460E460024EC
:1051D000A24600BFA1460027B08900B100BF2F46FC
:1051E0002C8A4CF6FF700440F08804432C82AC8972
:1051F0004EF6F3100440B0883189084371890843A2
:105200000443AC81AC8A4FF6FF400440B0890443AC
:10521000AC8201A8FDF7CCFF1F48874202D1DDF820
:1052200010A001E0DDF80CA0A88900F4004040B116
:105230000AEBCA0000EB0A1031684900B0FBF1F834
:1052400007E00AEBCA0000EB0A1031688900B0FBE6
:10525000F1F86420B8FBF0F004012009642101FB9F
:105260001089A88900F4004040B1322000EBC90049
:10527000B0FBF1F000F00700044308E0322000EB3F
:1052800009106421B0FBF1F000F00F0004432C8101
:1052900006B0BDE8F087000000380140014688886C
:1052A000C0F308007047000000B504200B490870E7
:1052B00000200B490870A5200A490870EA204870B0
:1052C0005A20887005480078FCF760F90549C870D5
:1052D00002480078FEF7A2FD00BD00002C0000206F
:1052E0002D0000201002002000B504200B4908709A
:1052F00000200B490870A5200A490870EA20487070
:10530000DC20887005480078FCF740F90549C87032
:1053100002480078FEF782FD00BD00002C0000204E
:105320002D0000201002002000B504200B49087059
:1053300000200B490870A5200A490870EA2048702F
:10534000E520887005480078FCF720F90549C87009
:1053500002480078FEF762FD00BD00002C0000202E
:105360002D0000201002002030B504460D46A52077
:105370000849087008464470022007490870681CF4
:1053800006490870FBF740FE03480078FEF746FD2B
:1053900030BD0000100200202C0000202D00002055
:1053A000F8B506460C461746A5201349087046F086
:1053B000800048700097002508E0601E401B1DF823
:1053C00000100D4AA81C1154681CC5B2A542F4DB9C
:1053D000E01C0A4908700020094908700748007855
:1053E000FCF7D4F805490978491E034A505403488C
:1053F0000078FEF713FDF8BD100200202C000020FD
:105400002D00002000BFFEE70FB4054B10B503A927
:10541000044A029800F036F910BC5DF814FB000055
:10542000015F0008DC0000200FB4084B10B504A990
:1054300002AA039800F026F9044602A9002000F011
:10544000B8FC204610BC5DF814FB0000B35D0008FA
:1054500002E008C8121F08C1002AFAD1704770473D
:10546000002001E001C1121F002AFBD1704700009B
:1054700001490860704700000C0200202DE9F0414E
:1054800004460D4616461F46DDF81880EA1991B20B
:10549000A21990B24246FCF751F8EA1991B2A21B48
:1054A00090B24246FCF74AF8EA1B91B2A21990B2B8
:1054B0004246FCF743F8EA1B91B2A21B90B2424667
:1054C000FCF73CF8AA1991B2E21990B24246FCF7F7
:1054D00035F8AA1991B2E21B90B24246FCF72EF8B9
:1054E000AA1B91B2E21990B24246FCF727F8AA1B18
:1054F00091B2E21B90B24246FCF720F8BDE8F08181
:105500002DE9FF5F82B00021DDE90430020DDDF8F6
:1055100040B0034318D044F61050A2F2FF32424389
:105520001514119801281FD0A5EB0B00401C5FEA51
:10553000000A4FF000064E4FDFF83891B046504653
:1055400015D5CAF1000413E0119801244AA30128DB
:1055500001D16FEA0B010298119AC0E90031C0E94C
:10556000024206B0BDE8F09FCBF10000DFE7044641
:105570000021404A491842EB0450CDE9001012E0E6
:10558000E00707D032463B4640464946FAF709FF56
:105590008046894632463B4610461946FAF701FFD7
:1055A00006460F466410002CEAD1DDE90401DDE96E
:1055B0000023BAF1000F06DAFAF7F3FE42464B4633
:1055C000FAF7EFFE05E0FAF75EFF42464B46FAF7C0
:1055D0005AFF04460E460022284BFBF74FF803D82B
:1055E0004FF0FF30014607E00022254B20463146B0
:1055F000FBF777F9FBF76DFA102409E0002C0ADBC2
:105600000A220023FBF798F8039B30321A55641ED8
:1056100050EA0102F2D1641C039AC4F1110314444C
:10562000119A012A03D0012208430DD10AE0084350
:1056300004D000204FF0110B119072E7A3EB0B0583
:105640006D1E0DE05B4504DD4FF0000205F1010524
:1056500004E003DA4FF00002A5F10105002AECD0C6
:1056600002981199C0E90231C0E9004579E70000CC
:10567000000014400000F03F300000000000F04344
:105680000000E03F2DE9FF4F95B09B468946064656
:1056900000250FE2252877D100242746F84A01216A
:1056A000059400E0044316F8013F203B01FA03F0A3
:1056B0001042F7D130782A2811D06FF02F033078BC
:1056C000A0F13002092A16D8059A44F0020402EB30
:1056D000820203EB42021044761C0590EFE759F872
:1056E000042B0592002A03DA504244F4005405903A
:1056F00044F00204761C30782E2816D116F8010FDB
:1057000044F004042A280DD06FF02F023078A0F165
:105710003003092B09D807EB870302EB4303C718B3
:10572000761CF3E759F8047B761C30786C280FD090
:1057300006DC4C2817D068280DD06A2814D104E064
:10574000742810D07A280FD10DE044F400140AE038
:1057500044F4801401E044F440147278824202D18F
:1057600004F58014761C761C307866280BD013DC88
:10577000582877D009DC002875D04528F6D046286F
:10578000F4D047281AD19DE118E0632835D0642869
:1057900079D0652812D195E1702873D008DC67288C
:1057A000F1D069286FD06E280DD06F2806D1B5E0F2
:1057B00073282CD0752875D0782874D05A4617993C
:1057C00090476D1C75E1C4F30250022809D00328EC
:1057D0000DD0D9F8001004280DD00D6009F104098E
:1057E00067E1D9F80010EA17C1E90052F6E7D9F8E5
:1057F00000100D80F2E70D70F0E719F8041B8DF82A
:10580000001000208DF80100EA46012003E059F85D
:1058100004AB4FF0FF3061074FF0000102D40DE000
:1058200008F101018846B9420FDA8045F8DB1AF821
:1058300008100029F4D108E008F1010188468142EE
:10584000FADB1AF808100029F6D105985B46A0EBA0
:10585000080721463846179A00F094FA284400EBCE
:10586000080507E04DE029E10DE01AF8010B5A4662
:1058700017999047B8F10108F7D25B4621463846A0
:10588000179A13E142E00A220092C4F302524FF049
:10589000000A022A08D059F804CB032A4FEAEC7117
:1058A0000AD00DE029E02AE009F1070121F0070202
:1058B000F2E802C1914609E00FFA8CFC4FEAEC7164
:1058C000042A03D14FFA8CFC4FEAEC71002907DA65
:1058D0000A460021DCF1000C61EB02012D2202E0FE
:1058E000220504D52B228DF80420012203E0E207D3
:1058F00001D02022F7E7904659E00A2102E0102269
:105900000DE010214FF0000A00910BE010224FF043
:10591000000A44F004040827009203E008224FF034
:10592000000A0092C4F30252022A05D059F804CBAF
:105930000021032A08D009E009F1070121F007023C
:10594000F2E802C1914605E01FFA8CFC042A01D15D
:105950000CF0FF0C4FF00008220728D5702806D065
:10596000009B83F0100353EA0A0305D00EE04022A7
:105970008DF80420012208E05CEA010206D0302202
:105980008DF804208DF8050002229046009B83F0DC
:10599000080353EA0A030AD15CEA010201D1620753
:1059A00005D530228DF804204FF001087F1E5828BD
:1059B00004D034A003900EA802900DE036A0F9E7C1
:1059C00053466046009AFAF7B7FE84460398825C15
:1059D0000298401E029002705CEA0100F0D1029829
:1059E00006A9081A00F1200A600702D524F48034C1
:1059F00000E00127574502DDA7EB0A0000E0002088
:105A000000EB0A01009005984144401A0590E0031C
:105A100006D45B462146179A059800F0B3F9054471
:105A2000002706E001A85A46C05D179990476D1CF3
:105A30007F1C4745F6DBE0030CD55B462146179AF1
:105A4000059800F09FF9054404E030205A46179964
:105A500090476D1C0099481E00900029F5DC08E075
:105A6000029802995A460078491C0291179990476A
:105A70006D1CBAF10001AAF1010AF1DC65E1000038
:105A80000928010030313233343536373839616214
:105A900063646566000000003031323334353637D8
:105AA00038394142434445460000000000F058F9AF
:105AB0000544761C307800287FF4ECAD19B02846F8
:105AC000BDE8F08F620700D4062709F1070222F033
:105AD000070CFCE80223E14603F000485FEA080CEB
