:020000040800F2
:10000000C84E00209901000815280008F1160008C4
:10001000112800081D0C0008793F000800000000AE
:1000200000000000000000000000000001010008C6
:100030009111000800000000450100081538000873
:10004000B3010008B3010008B3010008B3010008C0
:10005000B3010008B301000895110008B3010008BE
:10006000B5110008E911000809120008B3010008E1
:10007000B3010008B3010008B3010008B301000890
:10008000B3010008B3010008B3010008B301000880
:10009000B3010008B3010008B3010008B301000870
:1000A000B3010008B3010008B3010008B301000860
:1000B00085380008A93800089D390008B3010008F8
:1000C000B3010008B3010008B3010008B301000840
:1000D000B3010008153B00089D3B0008053C0008E3
:1000E000B3010008B3010008B3010008DFF80CD029
:1000F00000F0C6FB00480047214B0008C84E002016
:10010000224B19680868B0E8F00F80F30988BFF344
:100110006F8F4FF0000080F311884EF00D0E704786
:100120000000000006480068006880F3088862B696
:1001300061B6BFF34F8FBFF36F8F00DF00BF00BF0B
:1001400008ED00E0EFF30980BFF36F8F0F4B1A68E3
:1001500020E9F00F106008B54FF0100080F311880F
:10016000BFF34F8FBFF36F8F07F0D6FD4FF0000046
:1001700080F31188BDE8084019680868B0E8F00FFE
:1001800080F30988BFF36F8F704700BFFC00002029
:10019000EFF3058070470000064880470648004797
:1001A000FEE7FEE7FEE7FEE7FEE7FEE7FEE7FEE727
:1001B000FEE7FEE725380008ED00000840EA0103ED
:1001C0009B0703D009E008C9121F08C0042AFAD20D
:1001D00003E011F8013B00F8013B521EF9D27047D1
:1001E000D2B201E000F8012B491EFBD27047002279
:1001F000F6E710B513460A4604461946FFF7F0FF26
:10020000204610BD421C10F8011B0029FBD1801AAA
:10021000704780EA010210B502F00043400022D08E
:100220004A001FD0010E01EB1261C0F35600C2F369
:10023000560240F4000042F40002A0FB0220000439
:100240007F39140400D0401C50EA124001D4400011
:10025000491EC2B20C0604EBD010401C4008802A94
:1002600002D003E0002010BD20F00100002900DAD8
:100270000020184310BD30B480EA010202F00045AE
:1002800030F0004221F0004013D090B1C30DD40DE6
:10029000C2F31601C0F31600E41A41F4000140F461
:1002A00000027D34914201D3641C00E04900002C1F
:1002B00002DA30BC002070474FF400000023914266
:1002C00001D3891A034340084FEA4101F7D151B1E4
:1002D000914202D14FF0004105E002D24FF00101FE
:1002E00001E06FF0010103EBC450284430BC00F082
:1002F0005CB92DE9FE4F81EA030404F0004421F0CB
:10030000004100944FF0000B23F0004350EA010439
:100310005ED052EA03045BD0C3F30A54C1F30A551A
:100320002C44A4F2F3340194A0FB0254C1F3130152
:1003300041F48011C3F3130343F4801301FB02441F
:1003400000FB034E840A970A44EA815447EA835724
:10035000A4FB076802958D0A05FB07854FEA932CDD
:1003600004FB0C542705029D4FEA065847EA16374E
:10037000B5EB08056EEB070C870E920E47EA811766
:1003800042EA8312A7FB0201B6EB0B0164EB000407
:100390002B0D43EA0C335E1844EB1C50DA465146F1
:1003A000E7FB0201C5F313044FEA0B3343EA14538E
:1003B0004FEA0432019C43EA0603A4F10C040294C0
:1003C000009CCDE900B400F036F903B0BDE8F08F31
:1003D00000200146F9E72DE9F04D81EA030404F01D
:1003E000004B21F0004514464FF0000A23F0004175
:1003F00050EA050220D054EA01021DD0C5F30A5785
:100400000246C5F31303C1F31300C1F30A5640F4C7
:10041000801543F48013A7EB0608101BD64608F29C
:10042000FD3873EB050002D308F1010801E09218D2
:100430005B41B8F1000F03DA00200146BDE8F08D02
:1004400000204FF48011064684460EE0171B73EB24
:10045000050705D3121B63EB050306434CEA010CA9
:1004600049084FEA300092185B4150EA0107EDD18C
:1004700052EA030012D082EA040083EA050108432D
:1004800005D0101BAB4106D20122002306E000225A
:100490004FF0004302E06FF0010253101AEB060028
:1004A0004CEB085110EB0A0041EB0B01BDE8F04D9D
:1004B00000F0B2B896230022114600F07FB800F099
:1004C000004230F000400AD0C10D01F56071C0F368
:1004D000160042EA0151C20840071143704700204C
:1004E0000146704701F0004330B421F0004150EA6A
:1004F000010206D00A0DA2F56072C1F31301002AB1
:1005000002DC30BC00207047440F44EAC104C10043
:10051000E01830BC00EBC25000F047B830B50B46D5
:10052000014600202022012409E021FA02F59D4223
:1005300005D303FA02F5491B04FA02F52844151EF7
:10054000A2F10102F1DC30BD2DE9F05F054600208B
:1005500092469B4688460646814640241BE0284634
:1005600041464746224600F0ACF953465A46C01A67
:10057000914110D311461846224600F093F92D1AE6
:1005800067EB01084F4622460120002100F08AF95E
:1005900017EB00094E41201EA4F10104DFDC4846A0
:1005A00031462A464346BDE8F09F0029A8BF704760
:1005B000401C490008BF20F00100704710B4B0FA99
:1005C00080FC00FA0CF050EA010404BF10BC704734
:1005D00049B1CCF1200421FA04F411FA0CF118BF4E
:1005E000012121430843A3EB0C01CB1D4FEA00611D
:1005F0004FEA102042BF002010BC704700EBC350F0
:1006000010440029A4BF10BC7047401C490008BF1B
:1006100020F0010010BC704710B5141E73F10004E7
:1006200008DA401C41F1000192185B411A4301D1E4
:1006300020F0010010BD2DE9F04D92469B4611B10E
:10064000B1FA81F202E0B0FA80F22032904600F076
:1006500029F904460F4640EA0A0041EA0B015346D5
:100660005A46084313D0114653EA010019D0C8F185
:100670004002504600F025F905460E4650465946C0
:10068000424600F00FF9084305D0012004E020465F
:100690003946BDE8F08D0020054346EAE0762C435C
:1006A00037430A986305E40AA0EB08000022FD0A1C
:1006B00044EA47540A3002D500200146E9E7010523
:1006C00010196941DDE9084500196941BDE8F04D9F
:1006D000A2E72DE9FE4F804681EA0300C00F0C46D9
:1006E000009021F0004123F00045B8EB0200A94141
:1006F00005D24046214690461C460B46024623F052
:100700000040104347D0270DC7F30A00C3F30A5136
:100710000290401A019040286BDAC3F3130040F4B2
:10072000801B0098924620B10023D2EB030A63EBB2
:100730000B0B01985946C0F14002504600F0B2F848
:1007400006460D4650465946019A00F0CAF810EB8D
:1007500008006141002487EA115284EAE7731A43D2
:1007600040D0009A62B3019A012A4FEA075215DC81
:10077000001B61EB02014FF0004202EA0752CDE993
:100780000042001C41F5801132462B46FFF753FF13
:1007900003B0BDE8F08F40462146F9E7001B61EB4E
:1007A0000201001C41F5801300185B412018A2F5DE
:1007B000001747EB030140EAD570B6196D4111E00F
:1007C0006D084FEA360645EAC0754FEA0752001B2E
:1007D00061EB0201001C41F5801149084FEA30002D
:1007E0000019514132462B4603B0BDE8F04FFFF7E8
:1007F00013BF0098012240000023D0EB020263EBFC
:10080000E073009821464FEAE074B8EB000061EB1A
:100810000401E9E783F000435BE781F0004158E71A
:10082000C1F30A52C1F3130140F2FF3341F48011C6
:100830009A4202DA00200146704740F233439A425E
:10084000A2F2334202DC524200F03BB800F02AB878
:1008500030B5041E71F1000404DB4FF00044404247
:1008600064EB0101141E73F1000405DB1C464FF01C
:100870000043524263EB0403994208BF904230BDEB
:10088000064C074D06E0E06840F0010394E80700DD
:1008900098471034AC42F6D3FFF72CFC38A7000879
:1008A00058A70008202A04DB203A00FA02F10020B1
:1008B00070479140C2F1200320FA03F3194390409E
:1008C0007047202A04DB203A21FA02F00021704709
:1008D00021FA02F3D040C2F12002914008431946A8
:1008E0007047202A06DBCB17203A41FA02F043EA90
:1008F000E07306E041FA02F3D040C2F120029140D9
:1009000008431946704770B58C1810F8015B15F054
:10091000070301D110F8013B2A1106D110F8012B71
:1009200003E010F8016B01F8016B5B1EF9D12B0796
:1009300005D40023521E0DD401F8013BFAE710F84C
:10094000013BCB1A921C03E013F8015B01F8015B39
:10095000521EF9D5A142D8D3002070BD10B5A2B067
:1009600080212D48FFF743FC2CA22EA12A4803F03A
:1009700015FB2948FFF746FC3449086080213448BC
:10098000FFF735FC33A325A235A1314803F006FB60
:100990002F48FFF737FC34490860802102A8FFF791
:1009A00026FC2CA01DA31DA230A1009002A803F0DC
:1009B000F5FA02A8FFF726FC0446202034A33D4A9E
:1009C0002146009002A805F09FF83A48FFF71AFC6C
:1009D0003949086080213948FFF709FC1DA238A178
:1009E000364803F0DBFA40F25B703F490860084686
:1009F000324902683DA003F0C1FA074940A003F064
:100A0000BDFA134942A003F0B9FA2A4944A003F001
:100A1000B5FA22B010BD0000963F0020444C43536D
:100A20000000000025737C7365637572656D6F64EB
:100A3000653D332C7369676E6D6574686F643D68DE
:100A40006D6163736861317C00000000A4010020C7
:100A500016400020613174595253503346363100EC
:100A60002573262573000000A8010020636C6965CA
:100A70006E74496425736465766963654E616D655E
:100A8000257370726F647563744B6579257300000C
:100A90003233313131383837326630666366376227
:100AA0006462643634643739343734316335373708
:100AB0000000000096400020AC01002016410020FC
:100AC00025732E696F742D61732D6D7174742E638F
:100AD0006E2D7368616E676861692E616C697975E6
:100AE0006E63732E636F6D00B0010020B7FE20CEE1
:100AF000F120C6F7A3BA25733A25640D0A00000059
:100B0000BFCDBBA7B6CB4944A3BA25730D0A0000DD
:100B1000D3C320BBA720C3FBA3BA25730D0A0000D3
:100B2000C3DC20202020C2EBA3BA25730D0A0000ED
:100B300008B50A48002301221E21009008A008F0F1
:100B40003FF8094908600846006818B907A003F093
:100B500015FA02E00AA003F011FA08BD017E0008B0
:100B600054696D657200000014000020C8EDBCFEE1
:100B7000B6A8CAB1C6F7B4B4BDA8CAA7B0DC000015
:100B8000C8EDBCFEB6A8CAB1C6F7B4B4BDA8B3C917
:100B9000B9A600001CB506F0D3FD114805210023BD
:100BA0004FF40072CDE900100EA1114807F032FD9C
:100BB0001048012100230A02CDE900100EA11148BE
:100BC00007F028FD1048052100234FF40072CDE9FD
:100BD00000100EA1104807F01DFD06F0F5FD1CBD2C
:100BE000040000206C6564305F7461736B0000006A
:100BF000014A0008080000204B45595F7461736B7F
:100C000000000000051C0008100000204F4C454467
:100C10005F7461736B0000009D28000800BFFEE751
:100C200070B500F0FFF902F0B7F902F08BFB02F0AB
:100C30004FFA02F061F802F047F902F041FB02F0CE
:100C400003FB53A003F09AF951A003F097F9514820
:100C50000078012803D150A003F090F902E054A0DD
:100C600003F08CF95848016858A003F087F95D48F3
:100C700001685DA003F082F96148016861A003F09A
:100C80007DF96648016866A003F078F96A48016852
:100C90006AA003F073F96F4801686FA003F06EF962
:100CA0007248016872A003F069F939A003F066F98F
:100CB0007648016876A003F061F97B4801687BA063
:100CC00003F05CF97D4801687DA003F057F9824884
:100CD000016882A003F052F98648016886A003F0FB
:100CE0004DF98B4801688BA003F048F990480168E2
:100CF00090A003F043F926A003F040F9944800685F
:100D0000FFF7DDFB044622460B4692A003F036F9BE
:100D100095480068FFF7D3FB044622460B4693A094
:100D200003F02CF996480068FFF7C9FB04462246F9
:100D30000B4694A003F022F997480068FFF7BFFB29
:100D4000044622460B4695A003F018F99A4800681D
:100D5000FFF7B5FB044622460B4698A003F00EF9B8
:100D60009D480068FFF7ABFB044622460B469BA05C
:100D700003F004F906A003F001F905A003F0FEF862
:100D80009BA003F0FBF89AA003F0F8F870BD0000F8
:100D90000D0A000000000020D6B1C1F7B2E2C1BFC9
:100DA0002C75617274CDA8D1B6B7BDCABD0D0A004D
:100DB000BDBBC1F7B2E2C1BF2C75617274CDA8D1C1
:100DC000B6B7BDCABD0D0A004C00002041CDA8B584
:100DD000C0B5E7C1F7D7AABBBBCFB5CAFD3A2578E6
:100DE0000A20000054000020B5E7D1B9CDA8B5C055
:100DF000D7AABBBBCFB5CAFD3A25780A20000000B0
:100E00005800002041CDA8B5C0B9A6C2CAD7AABB18
:100E1000BBCFB5CAFD3A25780A200000600000204B
:100E2000CAD3D4DAB9A6C2CAD7AABBBBCFB5CAFD4A
:100E30003A25780A200000006400002041CDA8B5C2
:100E4000C0B5E7C1BFD7AABBBBCFB5CAFD3A2578AD
:100E50000A2000006C000020D7AABBBBCFB5CAFD9A
:100E6000D0A3D1E9BACD3A25780A2000700000203D
:100E7000D7AABBBBCFB5CAFDBCC6CBE3B3F6B5C4DE
:100E8000D0A3D1E9BACD3A25780A2000800000200D
:100E900041CDA8B5C0B5E7C1F7BCC4B4E6C6F73AC2
:100EA00025780A200000000084000020B5E7D1B9B1
:100EB000BCC4B4E6C6F73A25780A200088000020B2
:100EC00041CDA8B5C0B9A6C2CABCC4B4E6C6F73AFB
:100ED00025780A20000000009400002041CDA8B52C
:100EE000C0B5E7C1BFBCC4B4E6C6F73A25780A204E
:100EF000000000009800002041CDA8B5C0C6B5C2D2
:100F0000CABCC4B4E6C6F73A25780A20000000003F
:100F10008C00002041CDA8B5C0CAD3D4DAB9A6C28E
:100F2000CABCC4B4E6C6F73A25780A20000000001F
:100F30009000002041CDA8B5C0B9A6C2CAD2F2CA5D
:100F4000FDBCC4B4E6C6F73A25780A2000000000CC
:100F5000AC000020465F44435F49203D20256620C9
:100F600041200A2000000000A8000020465F444302
:100F70005F56203D2025662056090A20000000000B
:100F8000B0000020465F44435F50203D202566208E
:100F900057090A2000000000B8000020465F4443C3
:100FA0005F4241434B55505F45203D202566204B15
:100FB0005748200A20000000C4000020465F41433B
:100FC0005F4C494E455F46726571203D2025662085
:100FD000487A200A20000000BC000020465F4443FD
:100FE0005F5046203D20256620487A200A200000D8
:100FF0002D2D2D2D2D2D2D2D2D2D2D2D2D2D2D2D21
:101000002D2D2D2D2D2D2D2D2D2D2D2D2D2D2D2D10
:101010002D2D2D2D2D2D2D2D2D2D2D2D2D2D0D0A43
:101020000000000010B50221002002F057FF0A2046
:1010300003F094FC2E48007800F02AFB2C49097834
:10104000491E2C4A515C884208D11046407811460E
:10105000097800EB01202849086005E027A002F08C
:101060008DFF01202C4908700221012002F036FF7B
:101070000A2003F073FC1E48007800F009FB1C49AD
:101080000978491E1B4A515C884208D110464078B5
:101090001146097800EB01202049086005E020A0F6
:1010A00002F06CFF01201C4908700221132002F09D
:1010B00015FF0A2003F052FC0D48007800F0E8FA12
:1010C0000B490978491E0B4A515C884208D11046E9
:1010D00040781146097800EB01201849086005E0C6
:1010E00017A002F04BFF01200B49087010BD000053
:1010F00029000020D601002074000020537973637A
:101100006F6E526567BCC4B4E6C6F7B6C1C8A1B37A
:10111000F6B4ED0D0A0000002D000020780000203C
:10112000456D75636F6E526567BCC4B4E6C6F7B6AD
:10113000C1C8A1B3F6B4ED0D0A0000007C00002088
:10114000456D75636F6E32526567BCC4B4E6C6F711
:10115000B6C1C8A1B3F6B4ED0D0A0000002004E04A
:101160000021074A1154411CC8B20A28F8DB0021AB
:10117000044A1170044A1170044A1170704700004B
:10118000D60100202C0000202B0000202A00002087
:101190007047000010B50A2003F0E0FB4FF4004157
:1011A000034800F0D2F8012000F03EF810BD000026
:1011B000000C014010B50A2003F0D0FB4FF4804131
:1011C000074800F0C2F838B90648006808B901209D
:1011D00000E0002003490860042000F025F810BD5D
:1011E000000C0140B401224210B50A2003F0B6FB06
:1011F0004FF40051034800F0A8F8082000F014F85C
:1012000010BD0000000C014010B50A2003F0A6FB41
:101210004FF48051034800F098F8102000F004F8D3
:1012200010BD0000000C014001490860704700003B
:10123000140401402DE9F04102460025002600205B
:1012400000230024002791F803C00CF00F0591F84B
:1012500003C00CF0100CBCF1000F03D091F802C0D9
:101260004CEA050591F800C0BCF1000F31D01468BC
:1012700000202BE04FF0010C0CFA00F3B1F800C095
:101280000CEA03069E4220D183004FF00F0C0CFAAB
:1012900003F7BC4305FA03FC4CEA040491F803C0CD
:1012A000BCF1280F06D14FF0010C0CFA00FCC2F87B
:1012B00014C00AE091F803C0BCF1480F05D14FF00B
:1012C000010C0CFA00FCC2F810C0401C0828D1D355
:1012D0001460B1F800C0BCF1FF0F34DD5468002089
:1012E0002EE000F1080C4FF0010808FA0CF3B1F8F9
:1012F00000C00CEA03069E4221D183004FF00F0C80
:101300000CFA03F7BC4305FA03FC4CEA040491F819
:1013100003C0BCF1280F05D100F1080C08FA0CF845
:10132000C2F8148091F803C0BCF1480F07D100F156
:10133000080C4FF0010808FA0CF8C2F81080401CA5
:101340000828CED35460BDE8F0810246002093689F
:101350000B400BB1012000E0002070470161704795
:101360002DE9FC5F0546884691469A46DDF830B087
:1013700000951020019000245FE004EB0410374931
:1013800011F810009BF80010884253D104EB0410B0
:10139000324901EB400040789BF80110884249D166
:1013A00008F10F0083B205F10F0082B241462846D2
:1013B00000F0D2FE00263BE0002734E00D9890B903
:1013C00004EB0410254901EB4000801C805D802166
:1013D0003941084018B1484600F0E8FC21E0504689
:1013E00000F0E4FC1DE01E48A0F8009004EB04109F
:1013F0001A4901EB4000801C805D80213941084082
:1014000018B14146284600F0ADFC681C85B2009832
:10141000281A102805D1009D08F101001FFA80F854
:1014200003E0781CC7B2082FC8DB00BF701CC6B22F
:10143000202EC1DB00BF601C84B2019884429CDB7B
:1014400008484088401E83B206480088401E82B289
:101450000021084600F080FEBDE8FC9F6C97000864
:1014600078010020F42D00202DE9FC5F0546884618
:1014700091469A46DDF830B0009510200190002486
:1014800068E004EB840000EB44103B4901EB4000B2
:1014900090F848009BF80010884258D104EB840073
:1014A00000EB4410344901EB400090F849009BF8F0
:1014B000011088424BD108F1170083B205F11700E3
:1014C00082B24146284600F047FE00263DE0002754
:1014D00036E00D9898B904EB840000EB44102649DF
:1014E00001EB4000805D80213941084018B1484639
:1014F00000F05CFC22E0504600F058FC1EE01F4863
:10150000A0F8009004EB840000EB44101A4901EBB2
:101510004000805D80213941084018B1414628468D
:1015200000F020FC681C85B20098281A182805D104
:10153000009D08F101001FFA80F803E0781CC7B293
:10154000082FC6DB00BF701CC6B2482EBFDB00BF31
:10155000601C84B20198844293DB09484088401E95
:1015600083B207480088401E82B20021084600F07E
:10157000F3FDBDE8FC9F00008C9900087801002075
:10158000F42D00202DE9FC5F0546884691469A46D9
:10159000DDF830B0009510200190002460E004EBED
:1015A0008410384901EB400090F880009BF800104F
:1015B000884252D104EB8410324901EB400090F88C
:1015C00081009BF80110884247D108F11F0083B2C7
:1015D00005F11F0082B24146284600F0BDFD0026FD
:1015E00039E0002732E00D9888B904EB84102549D2
:1015F00001EB4000815D80203841014019B148462F
:1016000000F0D4FB20E0504600F0D0FB1CE01E4868
:10161000A0F8009004EB84101A4901EB4000805DB3
:1016200080213941084018B14146284600F09AFB14
:10163000681C85B20098281A202805D1009D08F161
:1016400001001FFA80F803E0781CC7B2082FCADB3C
:1016500000BF701CC6B2802EC3DB00BF601C84B20A
:10166000019884429BDB09484088401E83B20748AA
:101670000088401E82B20021084600F06DFDBDE8E2
:10168000FC9F00002C9E000878010020F42D002013
:1016900030B5034600210020002204E0084CA45C81
:1016A0002144541CE2B25C1E9442F7DC054C2478C1
:1016B0000C44044D6D786119C943C8B230BD0000B7
:1016C000D6010020CC01002010B5034600220020E6
:1016D000002104E0054C645C22444C1CE1B25C1E19
:1016E0008C42F7DCD243D0B210BD0000CC01002008
:1016F00000BFFEE710B502F0D1FB0A2003F02EF97F
:1017000002F08CFB0A2003F029F94FF42062022139
:10171000002002F0FFFB0A2003F020F90D480078BA
:10172000012804D17122022102F0F4FB04E001221D
:101730000221104602F0EEFB40F265420221132026
:1017400002F0E8FB0A2003F009F902F087FB00F041
:1017500003F810BD0000002070B50221702002F0D7
:10176000BDFB322003F0FAF8A2480078FFF790FFA3
:10177000A0490978491EA04A515C88420CD1104604
:1017800040781146097800EB01209C490860084622
:1017900001689BA002F0F2FB0221712002F09EFB87
:1017A000322003F0DBF893480078FFF771FF91498E
:1017B0000978491E904A515C88420CD11046407805
:1017C0001146097800EB012093490860084601683A
:1017D00092A002F0D3FB0221722002F07FFB3220A4
:1017E00003F0BCF883480078FFF752FF814909787D
:1017F000491E814A515C88420CD1104640781146FE
:10180000097800EB01208B490860084601688AA02E
:1018100002F0B4FB0221732002F060FB322003F0DF
:101820009DF874480078FFF733FF72490978491E24
:10183000714A515C88420CD11046407811460978B3
:1018400000EB0120824908600846016881A002F08F
:1018500095FB0221742002F041FB322003F07EF858
:1018600064480078FFF714FF62490978491E624A0C
:10187000515C88420CD1104640781146097800EB43
:1018800001207A4908607248016879A002F076FB6D
:101890000221752002F022FB322003F05FF8554848
:1018A0000078FFF7F5FE53490978491E524A515C0A
:1018B00088420CD1104640781146097800EB01208F
:1018C000714908600846016870A002F057FB0221C8
:1018D000762002F003FB322003F040F84548007800
:1018E000FFF7D6FE43490978491E434A515C8842B6
:1018F0000CD1104640781146097800EB0120694967
:1019000008600846016868A002F038FB02217720D1
:1019100002F0E4FA322003F021F836480078FFF7AD
:10192000B7FE34490978491E334A515C88420CD1CC
:10193000104640781146097800EB012060490860A4
:10194000084601685FA002F019FB02216F2002F037
:10195000C5FA322003F002F826480078FFF798FE17
:1019600024490978491E244A515C88420CD110460A
:1019700040781146097800EB012058490860084674
:10198000016857A002F0FAFA00251C4800684FF6DB
:10199000FF71084420490968084426490968084439
:1019A0002B490968084431490968084436490968DF
:1019B00008443C4909680844414909680844C5434A
:1019C000A8B24B490860084601684AA002F0D6FA5E
:1019D0004748006841490968884204D101244AA067
:1019E00002F0CCFA03E000244BA002F0C7FA204634
:1019F00070BD000029000020D60100204C0000200E
:101A000041CDA8B5C0B5E7C1F7D7AABBBBCFB5CA12
:101A1000FD3A25780A2000005000002042CDA8B5EC
:101A2000C0B5E7C1F7D7AABBBBCFB5CAFD3A257889
:101A30000A20000054000020B5E7D1B9CDA8B5C0F8
:101A4000D7AABBBBCFB5CAFD3A25780A2000000053
:101A50005800002041CDA8B5C0B9A6C2CAD7AABBBC
:101A6000BBCFB5CAFD3A25780A2000005C000020F3
:101A700042CDA8B5C0B9A6C2CAD7AABBBBCFB5CA0A
:101A8000FD3A25780A20000060000020CAD3D4DA8D
:101A9000B9A6C2CAD7AABBBBCFB5CAFD3A25780A38
:101AA000200000006400002041CDA8B5C0B5E7C10A
:101AB000BFD7AABBBBCFB5CAFD3A25780A20000024
:101AC0006800002042CDA8B5C0B5E7C1BFD7AABB0A
:101AD000BBCFB5CAFD3A25780A2000006C00002073
:101AE000CFB5CAFDD0A3D1E9BACD3A25780A2000F6
:101AF00070000020BCC6CBE3CFB5CAFDD0A3D1E9AE
:101B0000BACD3A25780A2000D0A3D1E9BACDD5FDC7
:101B1000C8B70D0A20000000D0A3D1E9BACDB3F6B2
:101B2000B4ED0D0A2000000008B50121082001F0E5
:101B300069F84FF4E040ADF8000048208DF803004C
:101B400069460448FFF776FB4FF4E0410148FFF790
:101B500005FC08BD000C014010B5044614B101207D
:101B6000264908702548007878B34FF480512448FE
:101B7000FFF7EBFB58B14FF400512148FFF7E5FBAD
:101B800028B14FF480411E48FFF7DFFBE8B90A2077
:101B900002F0E4FE0020194908704FF48051184803
:101BA000FFF7D3FB08B9012010BD4FF400511448D2
:101BB000FFF7CBFB08B90220F6E74FF4804110484D
:101BC000FFF7C3FBB8B90320EEE7FFE74FF48051FE
:101BD0000B48FFF7BAFB01280DD141030848FFF776
:101BE000B4FB012807D181030548FFF7AEFB0128AC
:101BF00001D1024908700020D6E700002000002033
:101C0000000C0140FFF776FD1DE00020FFF7A4FF68
:101C10000D49087008460078012804D10B49087066
:101C2000FFF768FD0BE008480078022805D1002086
:101C300006490870FFF75EFD01E0FEF7F1FF4FF483
:101C40007A7005F0F1FEE0E71800002000000020A7
:101C500030B50446002514484088401E83B212481F
:101C60000088401E82B20021084600F075FA10205C
:101C70000E4908600220091F086000BF08E0211219
:101C80000B4801F08FFCE1B2094801F08BFC6D1CA0
:101C900005480088044949884843A842EFD81020E5
:101CA0000249091F086030BDF42D002014080140CE
:101CB000003001402DE9FF4F85B081468A46002063
:101CC000049003900798A0EB09050898A0EB0A067A
:101CD000CDF80890CDF804A0002D01DD012705E026
:101CE0000DB9002702E04FF0FF376D42002E02DDF4
:101CF0004FF0010806E016B94FF0000802E04FF07F
:101D0000FF387642B54201DD2C4600E034464FF004
:101D1000000B21E0019A91B2029A90B200F022F8F1
:101D20000498284404900398304403900498A042F7
:101D300005DD0498001B0490029838440290039833
:101D4000A04205DD0398001B0390019840440190D8
:101D50000BF101001FFA80FB601C8345DADD09B03E
:101D6000BDE8F08F30B504460D462946204600F008
:101D7000C1F910200A4908600220091F08600948BB
:101D800000880112084801F00DFC06480178064859
:101D900001F008FC10200249091F086030BD000056
:101DA00014080140780100200030014000B50346CE
:101DB0001020094908600220091F0860191207480D
:101DC00001F0F0FBD9B2054801F0ECFB102002490C
:101DD000091F086000BD00001408014000300140E8
:101DE0002DE9F84F06460F4614461D46DDF82880BB
:101DF000A01B401C1FFA80FBE81B401C80B2009017
:101E0000681E83B2601E82B23946304600F0A4F9E3
:101E100010201A4908600220091F08604FF00009CD
:101E200017E04FF0000A0DE04FEA2821144801F0B6
:101E3000B9FB08F0FF01124801F0B4FB0AF1010000
:101E40001FFA80FA00988245EEDB09F101001FFAC3
:101E500080F9D945E5DB10200849091F08600948C9
:101E60004088401E83B207480088401E82B200218D
:101E7000084600F071F9BDE8F88F00001408014031
:101E800000300140F42D002010B501F0F7FA00F009
:101E90001DF9CF2000F032FA002000F019FAC1201D
:101EA00000F016FA302000F013FAED2000F026FAC8
:101EB000642000F00DFA032000F00AFA122000F06E
:101EC00007FA812000F004FAE82000F017FA8520D4
:101ED00000F0FEF9102000F0FBF97A2000F0F8F98C
:101EE000CB2000F00BFA392000F0F2F92C2000F0A2
:101EF000EFF9002000F0ECF9342000F0E9F90220BD
:101F000000F0E6F9F72000F0F9F9202000F0E0F900
:101F1000EA2000F0F3F9002000F0DAF9002000F0E8
:101F2000D7F9C02000F0EAF91B2000F0D1F9C12058
:101F300000F0E4F9012000F0CBF9C52000F0DEF953
:101F4000302000F0C5F9302000F0C2F9C72000F0C1
:101F5000D5F9B72000F0BCF9362000F0CFF94820C1
:101F600000F0B6F93A2000F0C9F9552000F0B0F9B8
:101F7000B12000F0C3F9002000F0AAF91A2000F007
:101F8000A7F9B62000F0BAF90A2000F0A1F9A220C2
:101F900000F09EF9F22000F0B1F9002000F098F96D
:101FA000262000F0ABF9012000F092F9E02000F0CB
:101FB000A5F90F2000F08CF92A2000F089F92820DB
:101FC00000F086F9082000F083F90E2000F080F977
:101FD000082000F07DF9542000F07AF9A92000F0E3
:101FE00077F9432000F074F90A2000F071F90F200E
:101FF00000F06EF9002000F06BF9002000F068F9A5
:10200000002000F065F9002000F062F9E12000F006
:1020100075F9002000F05CF9152000F059F917203F
:1020200000F056F9072000F053F9112000F050F9A4
:10203000062000F04DF92B2000F04AF9562000F060
:1020400047F93C2000F044F9052000F041F9102048
:1020500000F03EF90F2000F03BF93F2000F038F986
:102060003F2000F035F90F2000F032F92B2000F06E
:1020700045F9002000F02CF9002000F029F901209A
:1020800000F026F93F2000F023F92A2000F036F96D
:10209000002000F01DF9002000F01AF9002000F0E7
:1020A00017F9EF2000F014F9112000F027F978203B
:1020B00002F054FC292000F021F900F037F801204B
:1020C0000149086010BD00001008014010B54FF430
:1020D000004006490860642002F040FC4FF40040D4
:1020E00003490861322002F039FC10BD1408014098
:1020F0000010014030B504460D460B49887A00F0C7
:10210000FDF8201200F0E4F8E0B200F0E1F8064932
:10211000087B00F0F3F8281200F0DAF8E8B200F0DB
:10212000D7F800F0FFF830BDF42D002000B52C20CA
:102130000849088100208871F02008804FF4A070C1
:1021400048802A2048812B208881C921362000F030
:10215000F1F800BDF42D0020F0B504460D461646FA
:102160001F461149887A00F0C9F8201200F0B0F833
:10217000E0B200F0ADF8301200F0AAF8F0B200F0D2
:10218000A7F80949087B00F0B9F8281200F0A0F878
:10219000E8B200F09DF8381200F09AF8F8B200F0BA
:1021A00097F800F0BFF8F0BDF42D00202DE9FF4FA7
:1021B00083B081468A469346DDE910644048008832
:1021C0000290A6F12000C6B204EBD47009EB6000C7
:1021D000401E82B20AEB0400401E83B251464846BC
:1021E0000194FFF7B9FF129850BB002525E00C2C95
:1021F00007D106EB4600334901EB800010F805805B
:1022000004E0314800EB061010F8058000270DE0CF
:1022100008F0010018B15846FFF7C8FD02E0069823
:10222000FFF7C4FD4FEA6808781CC7B204EBD4710D
:10223000B7EB610FECDB681CC5B2A542D7DB2DE024
:10224000002529E00C2C07D106EB46001D4901EBC7
:10225000800010F8058004E01B4800EB061010F821
:102260000580002711E01648A0F800B008F0010032
:1022700038B10AEB050291B209EB070290B2FFF701
:1022800071FD4FEA6808781CC7B204EBD471B7EB54
:10229000610FE8DB681CC5B2A542D3DB0849029890
:1022A00008800A484088401E83B208480088401EC3
:1022B00082B200210846FFF74FFF07B0BDE8F08F5C
:1022C00078010020088D00087C910008F42D002082
:1022D00000B503461020074908600220091F086066
:1022E0001946054801F05EF910200249091F0860EF
:1022F00000BD0000140801400030014000B5034655
:10230000102006490860022008601946044801F0C0
:1023100049F910200149091F086000BD1408014057
:102320000030014000B50249087AFFF7E7FF00BD21
:10233000F42D002030B505460C462846FFF7DEFF99
:10234000E0B2FFF7C5FF30BD08B50121102000F055
:1023500059FC4FF40050ADF8000010208DF8030038
:1023600003208DF8020069460448FEF763FF4FF42E
:1023700000510248FEF7F2FF08BD000000100140C6
:1023800010B51648164908600846006815490860E7
:10239000154816490860164816490860084600683E
:1023A000154908601548164908601648164908601E
:1023B000084600681549086015481649086000F08D
:1023C0004BF8002114A000F0D7F900201F49087035
:1023D0001F4908701F49087010BD0000022E002020
:1023E0008001002084010020B232002088010020FA
:1023F000DE3300208C010020900100208E38002068
:1024000094010020BA390020980100209C0100208E
:102410006A3E0020A00100202F7379732F61317470
:1024200059525350334636312F444C43532F74681E
:10243000696E672F736572766963652F70726F704E
:10244000657274792F73657400000000C301002069
:10245000C2010020C001002070B501207A49086047
:102460000A207A4908607A480068001D794909689D
:102470000844801C78490968084478490860734812
:1024800000680968441810207549087000BF20468C
:10249000E11704EB5161C911A4EBC115E11704EB7D
:1024A0005161CC11002C01DD45F080056C48664A75
:1024B0001268855464480068401C63490860002C19
:1024C000E5DC0021664A60480068115404215E483A
:1024D0000068401C11544D215B480068801C115459
:1024E000512159480068C01C1154542156480068B5
:1024F000001D115454480068401D115404215248D5
:102500000068801D1154C2214F480068C01D11543D
:1025100000214D48006808301154FF214A480068E6
:10252000093011544A490868C11700EB1161C1F321
:1025300007224B4B444909680A315A5444490868F8
:10254000C11700EB11610912A0EB0121CAB23E498B
:1025500009680B315A541A463B4909680C31501826
:102560003B490A683F49FDF729FE3A490868C11707
:1025700000EB1161C1F30722334909680C31344B78
:102580001B681944364B5A5432490868C11700EB8E
:1025900011610912A0EB0121CAB22B4909680D3162
:1025A0002B4B1B6819442E4B5A54274909680E318E
:1025B000274A126811441A46881826490A682A4987
:1025C000FDF7FCFD24490868C11700EB1161C1F358
:1025D00007221D4909680E311D4B1B6819441D4B0C
:1025E0001B6819441E4B5A541B490868C11700EB5D
:1025F00011610912A0EB0121CAB2134909680F3118
:10260000134B1B681944134B1B681944144B5A5441
:102610000D49096810310E4A126811440D4A1268BA
:1026200011441A4688180C490A681049FDF7C6FD7E
:1026300005480068054A12681044084A1268811863
:10264000074801F035FA70BDB4010020B801002040
:10265000A4010020A8010020AC010020BC01002042
:1026600096410020963F0020164000209640002012
:1026700010B5C020044908700020487002210248AB
:1026800001F016FA10BD0000964100202DE9F04738
:102690000546884616460120334908602846FDF75E
:1026A000B1FD801C31490860314806600846006869
:1026B0002F490968441830202E49087000BF204671
:1026C000E11704EB5161C911A4EBC117E11704EB49
:1026D0005161CC11002C01DD47F080072548224ACA
:1026E0001268875420480068401C1F490860002C6D
:1026F000E5DC2846FDF786FDC0F307211D4A1A4890
:10270000006811542846FDF77DFDC1B2194A1648EC
:102710000068401C11542846FDF774FD8146154A97
:1027200011490968891C50184A462946FDF746FD9B
:102730002846FDF767FD0C490968891C08440D49C6
:1027400000EB0109324641464846FDF737FD064891
:102750000068064A12681044054A12688118054844
:1027600001F0A6F9BDE8F087B4010020B80100200F
:10277000BC0100209641002070B504460D460220A1
:102780001F4908601F4908602046FDF73BFDC01C3B
:102790001D49086082201D4908701A4800781A49AE
:1027A0000978084419494870002088700120C870D1
:1027B0002046FDF727FD000A144908712046FDF761
:1027C00021FD124948712046FDF71CFD06463246A0
:1027D00021460E48801DFDF7F1FC2046FDF712FD55
:1027E000801D0A490D5406480068064A12681044C4
:1027F000054A12688118054801F05AF970BD0000B9
:10280000B4010020B8010020BC0100209641002046
:1028100000BFFEE77047000070B5002100230F22C3
:10282000C47804B3154C246804F4E064C4F5E0648F
:10283000210AC1F10403CA40447804FA03F1847800
:102840001440214309010E4C0678A155047804F088
:102850001F050124AC4005786D11AD0005F1E025A0
:10286000C5F8004109E0047804F01F050124AC40DC
:10287000044D0678761145F8264070BD0CED00E059
:1028800000E400E080E100E002490143024A1160F7
:10289000704700000000FA050CED00E086B04FF034
:1028A0000A08322532240020FFF7D2F94EF65B7079
:1028B0000090A64802881E2300210846FFF790FAE0
:1028C00001201821A2A24CF21863CDE90021029048
:1028D0001F220146322000F0EBFE01201021A0A2B1
:1028E000CDE90021029004EB8400411900231F224E
:1028F000404600F0DDFE012010219CA2CDE9002120
:10290000029005EB840100231F22404600F0D0FE18
:102910000120102198A2CDE90021029004EB44008F
:10292000411900231F22404600F0C2FE0120102161
:1029300094A2CDE90021029005EB440100231F225F
:10294000404600F0B5FE0120102191A2CDE9002102
:102950000290611900231F22404600F0A9FE0120C9
:1029600010218EA20023CDE9002102901F222946CA
:10297000404600F09DFE7548028805F1200305F1F0
:1029800020010020FFF796F905F1200023186F4879
:10299000028805F1200021180020FFF78BF905F1CE
:1029A000200000EB44036948028805F1200000EB99
:1029B00044010020FFF77EF904EB440605F12000F6
:1029C00033186248028804EB440605F120003118F0
:1029D0000020FFF76FF905F1200000EB84035B484E
:1029E000028805F1200000EB84010020FFF762F966
:1029F00056490E8806EBD6714A1054490F8807EBEA
:102A0000D771481051494B881E21FFF753F99BE0BD
:102A10004FF0FF31012002F083FF62480068FDF7AC
:102A20004EFD064632460B465FA103A801F0B6FAFA
:102A30000020102103AA0346CDE90021029048F2AC
:102A40001F42294608F18C0000F032FE5948006808
:102A5000FDF735FD064632460B4657A103A801F0A7
:102A60009DFA0020102103AACDE9002102906119EE
:102A7000034648F21F4208F18C0000F019FE0022C4
:102A800013464FA103A801F089FA0020102103AAE0
:102A9000CDE90021029005EB4401034648F21F42B4
:102AA00008F18C0000F004FE47480068FDF707FDC0
:102AB000064632460B4642A103A801F06FFA0020F9
:102AC000102103AACDE90021029004EB4400411932
:102AD000002348F21F4208F18C0000F0E9FD3B485A
:102AE0000068FDF7ECFC064632460B4638A103A809
:102AF00001F054FA0020102103AACDE90021029030
:102B000005EB8401034648F21F4208F18C0000F0F7
:102B1000CFFD31480068FDF7D2FC064632460B4631
:102B20002EA103A801F03AFA0020102103AACDE952
:102B30000021029004EB84004119002348F21F4257
:102B400008F18C0000F0B4FD62E70000F42D0020D5
:102B5000B5E7C1A6B2CECAFDB2E2C1BF0000000017
:102B6000B5E7C1F7D3D0D0A7D6B50000B5E7D1B946
:102B7000D3D0D0A7D6B50000D3D0B9A6B9A6C2CAC3
:102B800000000000CEDEB9A6B9A6C2CA000000004F
:102B9000B9A6C2CAD2F2CAFD00000000B5E7C4DC83
:102BA00000000000B400002025352E3366206B772E
:102BB0002E680000BC00002025352E336600000082
:102BC00025352E3366205700B0000020A8000020D5
:102BD00025352E3366205600AC00002025352E33D7
:102BE0006620410029B1064AD2690243044BDA61EA
:102BF00004E0034AD2698243014BDA617047000066
:102C00000010024029B1064A92690243044B9A61BE
:102C100004E0034A92698243014B9A6170470000C5
:102C20000010024030B500210022002400232D4D69
:102C30006D6805F00C0121B1042905D0082923D1C4
:102C400005E0294D056022E0274D05601FE0254D78
:102C50006D6805F47012234D6D6805F4803402250B
:102C600005EB92421CB9214D554305600BE01D4D0B
:102C70006D6805F400351DB11C4D5543056002E03B
:102C8000194D5543056002E0174D056000BF00BFB8
:102C9000144D6D6805F0F0010909154D6B5C056870
:102CA000DD4045600F4D6D6805F4E061090A104D87
:102CB0006B5C4568DD4085600A4D6D6805F46051C8
:102CC000C90A0B4D6B5C4568DD40C560054D6D68FC
:102CD00005F44041890B074D6B5CC568B5FBF3F506
:102CE000056130BD0010024000127A0000093D006D
:102CF000E8000020F80000202DE9F0410321282001
:102D000001F0ECF80A2001F029FE4E480078FEF7A9
:102D1000BFFC4C490978491E4B4A515C88420CD192
:102D20001046007800041146497800EB0120114656
:102D3000897808444549086005E045A001F01EF97E
:102D400001204B4908700221084601F0C7F80A200B
:102D500001F004FE3B480078FEF79AFC39490978F7
:102D6000491E394A515C884208D1104640781146C4
:102D7000097800EB01203F49086005E03EA001F022
:102D8000FDF801203A49087030480068FDF792FBD1
:102D9000044640480068FDF78DFB05462146FDF7D7
:102DA00038FA04464FF09C412046FDF764FA044689
:102DB00039480078012819D12046FDF780FB0546E7
:102DC0004FF06632354BFDF706FB0746FDF78AFBF1
:102DD00004462046FDF773FB0546314A314BFDF7AB
:102DE000FAFA0746FDF77EFB044617E02046FDF79A
:102DF00066FB05462C4A2D4BFDF7EDFA0746FDF71D
:102E000071FB04462046FDF75AFB0546284A294B2C
:102E1000FDF7E1FA0746FDF765FB04462046FDF79E
:102E20004EFB0546244A254BFDF763FA0746FDF79E
:102E300059FB044622480460006822490860BDE846
:102E4000F081000029000020D6010020940000201D
:102E500041CDA8B5C0D3D0B9A6B5E7C1BFBCC4B4F5
:102E6000E6C6F7B6C1C8A1B3F6B4ED0D0A0000007E
:102E70002D000020480000204846434F4E5354B3D5
:102E8000A3CAFDBCC4B4E6C6F7B6C1C8A1B3F6B4C4
:102E9000ED0D0A00640000200000002066662E4050
:102EA0007B14AE47E1988040FCA9F1D24D62E83F27
:102EB000E3A59BC420B0F03F6ABC74931804EA3FBA
:102EC000B4000020B800002070B50221232001F0DA
:102ED00005F80A2001F042FD20480078FEF7D8FBF3
:102EE0001E490978491E1E4A515C884208D1104685
:102EF00040781146097800EB01201A49086005E086
:102F000019A001F03BF801201E490870154800681F
:102F1000FDF7D0FA054629464FF07E50FDF7ABF994
:102F200004461948007801280AD118492046FDF7BF
:102F3000A2F9044615492046FDF79DF904460AE02A
:102F400013492046FDF765F904464FF082412046BB
:102F5000FDF791F904460F48046070BD2900002078
:102F6000D60100209800002041CDA8B5C0C6B5C24A
:102F7000CABCC4B4E6C6F7B6C1C8A1B3F6B4ED0D79
:102F80000A0000002D000020000000200050C34770
:102F9000647A5A4AC40000202DE9F041032124201C
:102FA00000F09CFF0A2001F0D9FC36480078FEF7BB
:102FB0006FFB34490978491E334A515C88420CD171
:102FC0001046007800041146497800EB01201146B4
:102FD000897808442D49086005E02DA000F0CEFF57
:102FE0000120324908702948006800F40000B0F55B
:102FF000000F03D100202E49086040E023480068FC
:10300000FDF758FA04462B480068FDF753FA0546C9
:103010002146FDF7FEF804464FF096412046FDF7A5
:103020002AF904462448007801280CD12046FDF7EF
:1030300046FA0546214A224BFDF7CDF90746FDF732
:1030400051FA04460BE02046FDF739FA05461D4AC1
:103050001D4BFDF7C0F90746FDF744FA04461B492E
:103060002046FDF708F9044618492046FDF7D1F837
:1030700005461649FDF7FFF804460D480460BDE813
:10308000F081000029000020D601002080000020EF
:1030900041CDA8B5C0B5E7C1F7BCC4B4E6C6F7B624
:1030A000C1C8A1B3F6B4ED0D0A0000002D00002048
:1030B000AC0000204C000020000000207B14AE4734
:1030C000E1988040FCA9F1D24D62E83F00007A44CB
:1030D0002DE9F04704212C2000F000FF0A2001F028
:1030E0003DFC43480078FEF7D3FA41490978491E70
:1030F000404A515C884210D11046007800061146C3
:10310000497800EB01401146897800EB0120114617
:10311000C97808443849086005E038A000F02EFF5F
:1031200001203D49087034480068B0F1004F07D9CC
:1031300031480068C043FDF7BDF981464C4604E0C4
:103140002D480068FDF7B6F9044634480068FDF7DD
:10315000B1F905462146FDF75CF804464FF09E4163
:103160002046FDF788F804462D480078012819D13B
:103170002046FDF7A4F907462A4A2B4BFDF72BF909
:103180000546FDF7AFF904462046FDF798F90746D6
:103190004FF06632254BFDF71EF90546FDF7A2F903
:1031A000044617E02046FDF78AF90746204A214BDE
:1031B000FDF711F90546FDF795F904462046FDF7A0
:1031C0007EF905461C4A1D4BFDF705F90746FDF73C
:1031D00089F904461A492046FDF71BF805461849A7
:1031E000FDF749F8044617480460BDE8F087000081
:1031F00029000020D60100208800002041CDA8B57C
:10320000C0B9A6C2CABCC4B4E6C6F7B6C1C8A1B3A9
:10321000F6B4ED0D0A0000002D000020580000203B
:10322000000000207B14AE47E198804066662E4087
:10323000FCA9F1D24D62E83FE3A59BC420B0F03F6A
:1032400000007A44B000002070B50321272000F070
:1032500045FE0A2001F082FB13480078FEF718FAB9
:1032600011490978491E114A515C88420CD1104617
:10327000007800041146497800EB01201146897856
:1032800008440B49086002E001200A490870084818
:1032900000680949B0FBF1F52846FDF70BF9044633
:1032A0000648046070BD000029000020D6010020FF
:1032B000900000202D000020FFFF0700BC00002030
:1032C00010B504212E2000F009FE0A2001F046FB73
:1032D00011480078FEF7DCF90F490978491E0F4ABA
:1032E000515C884210D1104600780006114649789A
:1032F00000EB01401146897800EB01201146C978A6
:1033000008440749086005E006A000F037FE0120E8
:103310000B49087010BD000029000020D6010020D4
:103320008C00002041CDA8B5C0B9A6C2CABCC4B4A7
:10333000E6C6F7B6C1C8A1B3F6B4ED0D0A000000A9
:103340002D0000202DE9F0410321262000F0C6FDCC
:103350000A2001F003FB36480078FEF799F934495A
:103360000978491E334A515C88420CD110460078D6
:1033700000041146497800EB012011468978084481
:103380002D49086005E02DA000F0F8FD012032492C
:1033900008702948006800F40000B0F5000F03D160
:1033A00000202E49086041E023480068FDF782F8BC
:1033B00004462B480068FDF77DF805462146FCF7DA
:1033C00028FF04464FF095412046FCF754FF044681
:1033D0002448007801280DD12046FDF770F80546F5
:1033E0004FF06632204BFCF7F6FF0746FDF77AF800
:1033F00004460BE02046FDF762F805461B4A1C4BCD
:10340000FCF7E9FF0746FDF76DF804461949204629
:10341000FCF731FF044618492046FCF7FAFE054642
:103420001549FCF728FF04460C480460BDE8F0810C
:1034300029000020D601002084000020B5E7D1B982
:10344000CDA8B5C0BCC4B4E6C6F7B6C1C8A1B3F632
:10345000B4ED0D0A000000002D000020A80000209F
:10346000540000200000002066662E40E3A59BC4A7
:1034700020B0F03F0000C84200007A4400B587B099
:1034800001211520FFF7BEFBA020ADF804000320AA
:103490008DF8060018208DF8070001A92948FDF7CE
:1034A000C9FE4020ADF8040048208DF80700032035
:1034B0008DF8060001A92348FDF7BCFE1720ADF8E2
:1034C000040003208DF8060010208DF8070001A9E4
:1034D0001C48FDF7AFFE4FF40040ADF80400032098
:1034E0008DF8060010208DF8070001A91648FDF799
:1034F000A1FE01210803FFF785FB0020ADF80800BD
:103500004FF48270ADF80A000020ADF80C000220E4
:10351000ADF80E000120ADF810004002ADF8120029
:103520000020ADF81400ADF816000720ADF8180023
:1035300002A9064800F018F80121044800F008F834
:1035400007B000BD000801400010014000300140FC
:1035500021B1028842F04002028004E002884FF666
:10356000BF731A400280704710B50022028802F42F
:1035700041520B884C8823438C882343CC882343B7
:103580000C8923434C8923438C892343CC892343CF
:103590001A430280838B4FF2FF74234083830B8A8C
:1035A000038210BD024600BF108900F0020000280F
:1035B000FAD0918100BF108900F001000028FAD0F4
:1035C0009089C0B2704710B500F002F810BD00003D
:1035D0000CB50020019000903348006840F4803022
:1035E0003149086000BF3048006800F400300090A6
:1035F0000198401C0190009818B90198B0F5A06F8F
:10360000F1D12948006800F4003010B10120009089
:1036100001E0002000900098012843D12348006871
:1036200040F01000214908600846006820F00300BF
:1036300008600846006840F0020008601A484068C8
:10364000194948600846406848600846406840F4A8
:10365000806048600846406820F47C104860084656
:10366000406840F4E81048600846006840F0807008
:10367000086000BF0C48006800F000700028F9D016
:103680000948406820F00300074948600846406840
:1036900040F00200486000BF0348406800F00C00A2
:1036A0000828F9D10CBD00000010024000200240A3
:1036B0002DE9FF4F83B0064688469146DDE9114764
:1036C000109DB2464FF0000B71E0BBF1000F40D1EE
:1036D00004EBD471384A1288A2EB6101B14204DBD9
:1036E00035494988091B414502DA07B0BDE8F08F2A
:1036F0002878802802DD4FF0010B58E028780D284B
:1037000006D108EB04001FFA80F856466D1C1EE037
:10371000102C0DDD102128788DE883004A464146A3
:103720003046069BFEF742FD06F1080086B20EE029
:1037300028788DE891004A4641463046069BFEF7C0
:1037400035FD204604EBD07106EB61018EB26D1C95
:103750002DE019480088001BB04204DB1648408861
:10376000001B404500DAC0E74FF0000B202C08D1C9
:10377000CDE900574A4641463046069BFDF702FF19
:1037800012E0182C08D1CDE900574A464146304690
:10379000069BFDF769FE07E0CDE900574A46414622
:1037A0003046069BFDF7DCFDAD1C301986B228784B
:1037B00000288AD100BF98E7F42D002001460020A0
:1037C0000DE000BF074A128802F04002002AF9D03B
:1037D000054A125C034B1B1D1A80421CD0B2884262
:1037E000EFDB704700440040CC010020042808D1E2
:1037F0004FF0E021096941F004014FF0E02211612E
:1038000007E04FF0E021096921F004014FF0E022C8
:103810001161704710B504F0B7FF012801D004F022
:10382000AFFB10BD10B51348006840F0010011490E
:10383000086008464068104908400E49486008463C
:1038400000680E4908400B4908600846006820F4EB
:10385000802008600846406820F4FE0048604FF46D
:103860001F008860FFF7AFFE4FF00060044908605A
:1038700010BD0000001002400000FFF8FFFFF6FE40
:1038800008ED00E010B50121880700F0A2F840B172
:1038900004480068401C034908600121880700F0C3
:1038A00089F810BD2400002010B501211D4800F04A
:1038B00090F8012835D11C481C4902681C48006852
:1038C000801CFCF77BFC18480088000A184909682E
:1038D000087015480078164909684870144800684F
:1038E00000F5967012490860084600681149096899
:1038F000884202D110480E49086000200A49086039
:1039000000214FF0804000F07EF80021054800F0D3
:1039100054F80021034800F076F80121014800F036
:1039200049F810BD00040040C8010020C84600202E
:103930008001002088010020022E00207FB505466E
:103940000C4601210220FFF74DF9ADF80850ADF803
:1039500004400020ADF80600ADF80A0001A90E48A9
:1039600000F054F8012211460B4800F043F8012101
:10397000094800F022F81D208DF8000006208DF87F
:10398000010000208DF8020001208DF80300684638
:10399000FEF742FF7FBD00000004004010B501218A
:1039A000034800F016F80121014800F003F810BDAB
:1039B00000080040CA430282704721B1028842F0E9
:1039C0000102028004E002884FF6FE731A40028072
:1039D000704730B50246002000230024158A05EA0E
:1039E0000103958905EA010413B10CB1012000E03F
:1039F000002030BD1AB183890B43838102E08389A3
:103A00008B438381704781847047000000220288C5
:103A10001D4B98420ED01D4B98420BD0B0F1804FF9
:103A200008D01B4B984205D01A4B984202D01A4B33
:103A3000984204D14FF68F731A404B881A43174BA4
:103A4000984207D0164B984204D04FF6FF431A40D5
:103A5000CB881A4302808B8883850B8803850A4BA9
:103A600098420BD0094B984208D00E4B984205D093
:103A70000D4B984202D00D4B984201D10B7A038630
:103A80000123838270470000002C01400034014074
:103A90000004004000080040000C004000100040FE
:103AA0000014004000400140004401400048014033
:103AB00070B505460C462246294613480068801C0E
:103AC000FCF77CFB2046E11704EB1161090A0E4A62
:103AD00012681170E11704EB11610912A4EB0121C6
:103AE000094A126851700848006800F59670064946
:103AF00008600846006805490968884202D1044800
:103B00000149086070BD00008C0100209401002074
:103B1000DE33002010B540F225511D4800F0BCF8FE
:103B200010B31B4800F074F9C4B21A48008800F4BE
:103B30000040C8B91748008800F4804060B10A2CE2
:103B400003D000201349088020E01248008840F488
:103B500000401049088019E00D2C06D10D4800885E
:103B600040F480400B49088010E00A480088C0F308
:103B70000D0009490C5407480088401C054908807D
:103B800008460088C72801DD0020088010BD00001D
:103B900000380140D0000020E001002010B500F006
:103BA00001F810BD1148008800F02000E0B10F4876
:103BB00000880F4800780F49097888420FDA0B48CF
:103BC000001D00880C490A4A127888540848007879
:103BD000401C0749087001200849087004E00020D3
:103BE000074908700249087070470000004400400F
:103BF0002A00002029000020D60100202C000020EF
:103C00002B00002010B540F22551184800F044F870
:103C100058B31748007880B91448001D008820B3B5
:103C20001248001D00881349134A1268885412482C
:103C30000068401C1049086017E00C48001D00880F
:103C40000C490D4A126888540B48006820B90121BC
:103C50000A48FFF7B2FE03E000210848FFF7D3FE51
:103C600005480068401C0449086010BD0048004039
:103C7000C1010020C8460020C80100200004004007
:103C800021B1828942F40052828104E082894DF69A
:103C9000FF731A408281704770B5024600240023EA
:103CA0000025002040F66A16B14200D100BFC1F3E2
:103CB000421501F01F03012606FA03F3012D02D17C
:103CC0009689334006E0022D02D1168A334001E086
:103CD000968A33400C12012606FA04F41688344002
:103CE00013B10CB1012000E0002070BDF0B5034617
:103CF000002400260025002040F66A17B94200D1B2
:103D000000BF1846C1F3421401F01F06012707FA4D
:103D100006F5012C01D10C3004E0022C01D1103049
:103D200000E014301AB107682F43076002E007680B
:103D3000AF430760F0BD00002DE9F04786B00546AF
:103D40000E460024A24600BFA1460027B08900B15C
:103D500000BF2F462C8A4CF6FF700440F0880443C5
:103D60002C82AC894EF6F3100440B08831890843A8
:103D7000718908430443AC81AC8A4FF6FF4004408C
:103D8000B0890443AC8201A8FEF74CFF1F4887426C
:103D900002D1DDF810A001E0DDF80CA0A88900F444
:103DA000004040B10AEBCA0000EB0A10316849003C
:103DB000B0FBF1F807E00AEBCA0000EB0A1031682B
:103DC0008900B0FBF1F86420B8FBF0F00401200991
:103DD000642101FB1089A88900F4004040B1322021
:103DE00000EBC900B0FBF1F000F00700044308E06D
:103DF000322000EB09106421B0FBF1F000F00F005D
:103E000004432C8106B0BDE8F08700000038014073
:103E100001468888C0F308007047000000B5042000
:103E20000B49087000200B490870A5200A4908704A
:103E3000EA2048705A20887005480078FDF744FC55
:103E40000549C87002480078FFF7B8FC00BD0000C3
:103E50002800002029000020CC01002000B504200B
:103E60000B49087000200B490870A5200A4908700A
:103E7000EA204870DC20887005480078FDF724FCB3
:103E80000549C87002480078FFF798FC00BD0000A3
:103E90002800002029000020CC01002000B50420CB
:103EA0000B49087000200B490870A5200A490870CA
:103EB000EA204870E520887005480078FDF704FC8A
:103EC0000549C87002480078FFF778FC00BD000083
:103ED0002800002029000020CC01002030B5044635
:103EE0000D46A5200849087008464470022007497D
:103EF0000870681C06490870FDF730F9034800781F
:103F0000FFF75CFC30BD0000CC0100202800002041
:103F100029000020F8B506460C461746A52013498F
:103F2000087046F0800048700097002508E0601E89
:103F3000401B1DF800100D4AA81C1154681CC5B286
:103F4000A542F4DBE01C0A4908700020094908700A
:103F500007480078FDF7B8FB05490978491E034A70
:103F6000505403480078FFF729FCF8BDCC0100202D
:103F7000280000202900002000BFFEE70FB4054BF9
:103F800010B503A9044A029800F0EEF810BC5DF8E1
:103F900014FB0000E5490008CC0000200FB4084BDA
:103FA00010B504A902AA039800F0DEF8044602A99D
:103FB000002000F070FC204610BC5DF814FB0000EF
:103FC0009748000802E008C8121F08C1002AFAD169
:103FD00070477047002001E001C1121F002AFBD189
:103FE000704700002DE9FF5F82B00021DDE9043059
:103FF000020DDDF840B0034318D044F61050A2F291
:10400000FF3242431514119801281FD0A5EB0B0075
:10401000401C5FEA000A4FF000064E4FDFF838916F
:10402000B046504615D5CAF1000413E0119801249A
:104030004AA3012801D16FEA0B010298119AC0E945
:104040000031C0E9024206B0BDE8F09FCBF10000AC
:10405000DFE704460021404A491842EB0450CDE90D
:10406000001012E0E00707D032463B464046494682
:10407000FCF73FF98046894632463B4610461946D2
:10408000FCF737F906460F466410002CEAD1DDE94B
:104090000401DDE90023BAF1000F06DAFCF729F983
:1040A00042464B46FCF725F905E0FCF794F94246F9
:1040B0004B46FCF790F904460E460022284BFCF7CD
:1040C000C7FB03D84FF0FF30014607E00022254B25
:1040D00020463146FCF7FDFAFCF7A2FB102409E06C
:1040E000002C0ADB0A220023FCF72EFA039B303255
:1040F0001A55641E50EA0102F2D1641C039AC4F1FD
:1041000011031444119A012A03D0012208430DD14E
:104110000AE0084304D000204FF0110B119072E721
:10412000A3EB0B056D1E0DE05B4504DD4FF00002B7
:1041300005F1010504E003DA4FF00002A5F10105E5
:10414000002AECD002981199C0E90231C0E900457B
:1041500079E70000000014400000F03F300000004C
:104160000000F0430000E03F2DE9FF4F95B09B4673
:104170008946064600250FE2252877D100242746E8
:10418000F84A0121059400E0044316F8013F203B62
:1041900001FA03F01042F7D130782A2811D06FF0DD
:1041A0002F033078A0F13002092A16D8059A44F07E
:1041B000020402EB820203EB42021044761C0590DB
:1041C000EFE759F8042B0592002A03DA504244F431
:1041D0000054059044F00204761C30782E2816D145
:1041E00016F8010F44F004042A280DD06FF02F02B6
:1041F0003078A0F13003092B09D807EB870302EBD5
:104200004303C718761CF3E759F8047B761C307813
:104210006C280FD006DC4C2817D068280DD06A28EF
:1042200014D104E0742810D07A280FD10DE044F4A2
:1042300000140AE044F4801401E044F4401472785D
:10424000824202D104F58014761C761C30786628F0
:104250000BD013DC582877D009DC002875D045280E
:10426000F6D04628F4D047281AD19DE118E06328FB
:1042700035D0642879D0652812D195E1702873D0A3
:1042800008DC6728F1D069286FD06E280DD06F2820
:1042900006D1B5E073282CD0752875D0782874D055
:1042A0005A46179990476D1C75E1C4F302500228D5
:1042B00009D003280DD0D9F8001004280DD00D60C6
:1042C00009F1040967E1D9F80010EA17C1E90052C1
:1042D000F6E7D9F800100D80F2E70D70F0E719F855
:1042E000041B8DF8001000208DF80100EA46012023
:1042F00003E059F804AB4FF0FF3061074FF00001C5
:1043000002D40DE008F101018846B9420FDA804578
:10431000F8DB1AF808100029F4D108E008F10101CF
:1043200088468142FADB1AF808100029F6D1059870
:104330005B46A0EB080721463846179A00F094FA2E
:10434000284400EB080507E04DE029E10DE01AF8EC
:10435000010B5A4617999047B8F10108F7D25B460E
:1043600021463846179A13E142E00A220092C4F32C
:1043700002524FF0000A022A08D059F804CB032A4F
:104380004FEAEC710AD00DE029E02AE009F10701BB
:1043900021F00702F2E802C1914609E00FFA8CFC15
:1043A0004FEAEC71042A03D14FFA8CFC4FEAEC710E
:1043B000002907DA0A460021DCF1000C61EB02015A
:1043C0002D2202E0220504D52B228DF804200122A3
:1043D00003E0E20701D02022F7E7904659E00A21E6
:1043E00002E010220DE010214FF0000A00910BE0D6
:1043F00010224FF0000A44F004040827009203E062
:1044000008224FF0000A0092C4F30252022A05D09B
:1044100059F804CB0021032A08D009E009F107016B
:1044200021F00702F2E802C1914605E01FFA8CFC78
:10443000042A01D10CF0FF0C4FF00008220728D508
:10444000702806D0009B83F0100353EA0A0305D0BE
:104450000EE040228DF80420012208E05CEA01020F
:1044600006D030228DF804208DF8050002229046F7
:10447000009B83F0080353EA0A030AD15CEA0102B5
:1044800001D1620705D530228DF804204FF00108D4
:104490007F1E582804D034A003900EA802900DE08F
:1044A00036A0F9E753466046009AFCF74DF884467B
:1044B0000398825C0298401E029002705CEA010040
:1044C000F0D1029806A9081A00F1200A600702D567
:1044D00024F4803400E00127574502DDA7EB0A00F1
:1044E00000E0002000EB0A01009005984144401ACA
:1044F0000590E00306D45B462146179A059800F024
:10450000B3F90544002706E001A85A46C05D179993
:1045100090476D1C7F1C4745F6DBE0030CD55B46DE
:104520002146179A059800F09FF9054404E03020D1
:104530005A46179990476D1C0099481E0090002913
:10454000F5DC08E0029802995A460078491C02916D
:10455000179990476D1CBAF10001AAF1010AF1DC2C
:1045600065E1000009280100303132333435363737
:1045700038396162636465660000000030313233AF
:10458000343536373839414243444546000000004F
:1045900000F058F90544761C307800287FF4ECAD23
:1045A00019B02846BDE8F08F620700D4062709F14C
:1045B000070222F0070CFCE80223E14603F0004862
:1045C0005FEA080C02D00FF2702C0DE05FEA045C89
:1045D00002D50FF2682C07E05FEAC47C02D00FF22C
:1045E000602C01E0AFF2700C4FF0FF3823F0004375
:1045F000CDF850C065280CD006DC452809D04628E7
:104600001DD047283DD13DE0662818D067287ED1CF
:1046100038E00021112F01DB112000E0781CCDE9EA
:10462000000106A90EA8FFF7DDFCDDE90F010E9AD7
:1046300003910021009207F1010A04914DE04FF02F
:1046400000400097CDE9011006A90EA8FFF7CAFCAB
:10465000DDE90F0203920E9B11990022DDF80CA0F8
:104660000093049211B9791C00EB010AB7EB0A0020
:1046700004D4C0F1FF3007F1010A0490AAEB07004F
:10468000019044E0012F00DA01270021112F01DD04
:10469000112000E03846CDE9000106A90EA8FFF779
:1046A000A1FCDDE90F010E9A039100210491009213
:1046B000BA4621070CD40399514500DA8A46BAF16B
:1046C000010F05DD009AAAF10101515C302908D0E3
:1046D000B84202DA10F1040F06DA0121CDE9011027
:1046E00015E0AAF10101E9E7002805DC049901447D
:1046F0000491AAEB000102E0411C514500DD8A460D
:104700000499401A401C01904FF00040029020078D
:1047100004D40198504501DBCDF8048000208DF8C9
:104720004F0002980DF14F07B0F1004F25D02B201C
:104730000E9002984FF0020800280CDA40420290D6
:104740002D200E9007E00A210298FBF7E7FE30319A
:10475000029007F8011DB8F10001A8F10108F2DC90
:1047600002980028EFD1791E0E980870307800F07A
:10477000200040F0450007F8020D12A8C01B00F110
:1047800007081498007800B1012000EB0A01019895
:1047900001EBE07105984144401A401E0590E0038A
:1047A00006D45B462146179A059800F05DF805444B
:1047B0001498007818B15A46179990476D1CE00379
:1047C00024D55B462146179A059800F04DF805441C
:1047D0001CE00498002807DBDDE90301884203DDC3
:1047E0000098405C179901E0179930205A4690478D
:1047F000049805F10105401C04900198401E0190A9
:1048000004D12E205A46179990476D1CBAF1000129
:10481000AAF1010ADDDC05E017F8010B5A461799E9
:1048200090476D1CB8F10001A8F10108F4DC5B466B
:104830002146179A0598ABE62D0000002B000000DA
:10484000200000002DE9F041044600251E461746D1
:10485000880404D405E039462020B0476D1C641E4E
:10486000F9D52846BDE8F0812DE9F0410446002540
:104870001E469046C80301D5302700E02027880453
:1048800004D505E041463846B0476D1C641EF9D595
:104890002846BDE8F0810A68531C0B601070704711
:1048A00010B54FF44070FDF7EFFF00F029F8FDF769
:1048B0004BFDFDF7E9FA4FF4E13000F0E1FF4FF472
:1048C000165001F067F84FF4E13001F0BDF8FDF744
:1048D0002BF942F2CF0140F2F310FFF72FF8FCF76B
:1048E0003DF8FDF74DFD0020034908604FF480615D
:1048F0000248FBF77CFC10BDC8010020C846002020
:1049000010B50420FEF772FF104800681049B0FB94
:10491000F1F0104908700D4800680D49B0FBF1F442
:104920004FF47A70444301200B4908804FF0E02097
:10493000006940F002004FF0E02108610846446140
:10494000006940F00100086110BD0000D4000020A3
:1049500040420F00C8000020CA00002070B5044685
:1049600003F012FF012810D00B480088844206D3C0
:1049700009480088B4FBF0F5284603F055F80648CE
:104980000088B4FBF0F100FB11444FF47A7104FB92
:1049900001F000F003F870BDCA00002070B50346B6
:1049A00000224FF0E02675690D4E367803FB06F4C1
:1049B0004FF0E026B16910E04FF0E026B069884280
:1049C0000BD0884202D20E1A324402E02E1A0E4454
:1049D00032440146A24200D300E0EDE700BF70BDC3
:1049E000C800002000BF054A128802F04002002AD9
:1049F000F9D0C2B2014B1B1D1A807047003801402C
:104A0000DAB05FE03048006808B9012000E000201B
:104A10002D4908600023022219462C48006803F043
:104A200029FE2B480078012848D12A480068FBF766
:104A300046FD04460D4628480068FBF740FD064643
:104A40000F4626480068FBF73AFD80468946234812
:104A50000068FBF734FD82468B4621480068FBF76F
:104A60002EFDCDE90C011F480068FBF728FDCDE9BC
:104A700002ABCDE90489CDE90667CDE90845CDE96A
:104A80000A01DDE90C01CDE9000117490EA8DDE9B5
:104A90000A23FFF783FA1548007878B90023022229
:104AA00019460A48006803F0E5FD0EA8FBF7AAFBCB
:104AB000044622460EA90EA0FDF7E8FD4FF448700B
:104AC00002F0B2FF9EE70000B40122421000002075
:104AD000C3010020B4000020BC000020B000002072
:104AE000AC000020A80000208CA60008C001002017
:104AF0002F7379732F6131745952535033463631C5
:104B00002F444C43532F7468696E672F6576656E2A
:104B1000742F70726F70657274792F706F73740078
:104B2000012080F3108800BFFFF7BAFEFCF732F8CF
:104B3000FBF7FEFF03F08EF800BFFEE72DE9F04122
:104B400005460E461C4807681C480068001D02F018
:104B5000ADFD50B91948006890F82C10012088402C
:104B600017490968814316480160681C38B936B195
:104B700012480168091D134802F0D6FD1AE07C199D
:104B80000E4800684460BC4207D20C480168091D09
:104B90000D48006802F0AEFD0CE008480168091DF0
:104BA0000A48006802F0A6FD09480068844201D264
:104BB00007480460BDE8F08110010020FC000020DF
:104BC00014010020B805002004010020000100208D
:104BD0002C01002010B5044602F0B2FD2448006804
:104BE000401C234908602348006840B921480460FC
:104BF0000846006801280DD100F024FA0AE01E489A
:104C0000006838B91B480068C06AE16A884201D868
:104C10001848046019480068401C18490860084694
:104C20000068606494F82C100120884014490968D9
:104C3000084313490860E16A01EB8101114A02EB64
:104C40008100211D02F070FD02F0BEFD0A480068DF
:104C500068B108480068C06AE16A884207D24FF02C
:104C6000805009490860BFF34F8FBFF36F8F10BDAD
:104C70000C010020FC000020180100202801002069
:104C800014010020E802002004ED00E010B502F05D
:104C900057FD10480068D0B90F4802F01BFD0F48BF
:104CA00002F018FD0C480E4908600C480D490860D8
:104CB00000221021052003F07DF90649086008460E
:104CC000006820B108A10348006802F071FE02F0FC
:104CD0007BFD10BD48010020CC050020E005002030
:104CE0004001002044010020546D7251000000007A
:104CF00070B523E003F008F81348006808B90120F4
:104D000000E00020054603F0CBFEBDB902F018FD1F
:104D10000D48C068C468201D02F0C8FC0B4800683C
:104D2000401E0A4908600A480068401E0849086099
:104D300002F04AFD204600F060F800BF0448006819
:104D40000028D7D170BD0000A40500200C01002070
:104D50000801002070B504460D46206C70B1216C2E
:104D6000E0680844E0606168E068884201D3206838
:104D7000E0602846226CE168FBF720FA70BD2DE95F
:104D8000F04104460F4615464FF00008A66B206C14
:104D900040B9206860BB606803F0BCFD804600201D
:104DA000606025E07DB93946226CA068FBF706FA01
:104DB000216CA0680844A060D4E90110884217D390
:104DC0002068A06014E03946226CE068FBF7F6F931
:104DD000216CE068401AE0602168E068884203D2F4
:104DE000216C6068401AE060022D01D106B1761E88
:104DF000701CA0634046BDE8F08110B50446206BEE
:104E000002F01AFD204602F017FD10BD0146084AC7
:104E1000126812680AB9012200E000220A600A68DA
:104E200022B9034A1268D268106800E00020704777
:104E30004001002030B54FF42053174800F007041C
:104E40002CB1C01D20F00700134C041B1B1B024695
:104E5000124C22600024114D6C60D018083820F0EC
:104E600007000F4C206000240D4D2D686C600C4D28
:104E70002D682C601146441A4C60094C24680C6063
:104E8000084D4C682C60084D4C682C604FF0004475
:104E9000064D2C6030BD0000F405002060010020AC
:104EA00068010020700100206C01002074010020C6
:104EB00000BFFFF71DFF064800680128F9D94FF031
:104EC000805004490860BFF34F8FBFF36F8FF0E746
:104ED000E802002004ED00E02DE9F04106460D4611
:104EE00017469846069C0DB9246000E02760E663EB
:104EF00025640121204603F07BF984F850800020CE
:104F0000A064BDE8F08100002DE9F05F82460F4605
:104F100090469B460A9E0C9C4FEA8801A522206B76
:104F2000FBF75EF9A8F10100216B01EB800929F084
:104F3000070909F0070008B9012000E0002028B99E
:104F400040F22B321BA120A0FFF718F8002507E044
:104F5000795D04F134004155785D00B902E06D1CC3
:104F6000102DF5D300BF002143200155202E00D382
:104F70001F26E662E66400202065201D02F0B7FBD4
:104F800004F1180002F0B3FB2461C6F12000A06117
:104F9000646200206065A06584F85C005A46514652
:104FA000484600F05BFC20600B9808B10B98046049
:104FB000BDE8F09F2E2E5C4672656552544F535CDF
:104FC0007461736B732E63004572726F723A25734E
:104FD0002C25640D0A0000002DE9F04706460D4619
:104FE00017469846DDE908940DB1012000E0002045
:104FF00028B94FF4C67209A10EA0FEF7BFFF5CB13D
:10500000FFF744FE2660A561E761C4F82080C4F87C
:105010002490201D02F06BFBBDE8F0872E2E5C462D
:1050200072656552544F535C74696D6572732E637B
:10503000000000004572726F723A25732C25640DD2
:105040000A00000010B5002407E004EB84010F4AB9
:1050500002EB810002F03EFB641C202CF5D30C48CF
:1050600002F038FB0B4802F035FB0B4802F032FB34
:105070000A4802F02FFB0A4802F02CFB04480949B9
:10508000086004480849086010BD0000E8020020DC
:10509000680500207C05002090050020A405002064
:1050A000B8050020000100200401002010B50146D1
:1050B000164800E0006803688B42FBD30246436851
:1050C00013448B4204D143684C6823444360014637
:1050D0000A464B6813440468A34211D10C4C036880
:1050E0002468A34208D04B680468646823444B607A
:1050F00003681B680B6005E0054B1B680B6001E053
:1051000003680B60884200D0016010BD6001002080
:10511000680100202DE9F04104460D4616461F4661
:105120004FF0000865602461B5420CD8F01BA169FE
:10513000884202D34FF0010811E0211D09480068A0
:1051400002F0D8FA0BE0BE4204D2BD4202D34FF0C7
:10515000010804E0211D0448006802F0CBFA404633
:10516000BDE8F081440100204001002070B50546F3
:1051700002F0E6FAA86B08B9012400E0002402F06E
:1051800023FB204670BD70B5054602F0D9FAA86B26
:10519000E96B884201D1012400E0002402F014FBF5
:1051A000204670BD2DE9F3410D460098846C002720
:1051B0002CB940F6CE121AA11EA0FEF7DFFEA06B9E
:1051C000E16B884201D2012000E0002028B940F6BE
:1051D000CF1213A117A0FEF7D1FEA06BE16B88429E
:1051E0001BD294F945602A4669462046FFF7C7FD61
:1051F0000746701C60B9606A08B9012000E0002011
:1052000050B904F1240003F0F1FB28B1012703E0B9
:10521000701C40B284F8450000BF3846BDE8FC81F0
:105220002E2E5C4672656552544F535C71756575E0
:10523000652E63004572726F723A25732C25640DDA
:105240000A000000F8B505460F4613480068C0681C
:10525000C468201D02F02AFAE069012818D1A0696B
:1052600041192B463A462046FFF754FF80B10020F3
:1052700003462A4601460090204603F0F3FC06460A
:105280002EB94FF4027205A10AA0FEF777FE00BF07
:105290002046616A8847F8BD400100202E2E5C46FA
:1052A00072656552544F535C74696D6572732E63F9
:1052B000000000004572726F723A25732C25640D50
:1052C0000A000000F0B587B070E0039800280CDAFF
:1052D00004AE2EB940F2E7223AA140A0FEF74EFEFE
:1052E000D6E90020B168904700BF039800285DDB35
:1052F000059C606908B9012000E0002010B9201D5C
:1053000002F0D4F902A800F0C7F8054603980A286D
:105310004AD2DFE800F00905072C2E4506082D2F9C
:1053200000BF00BF00BF00BF0498A26981180346F8
:105330002A462046FFF7EEFEC0B12046616A884744
:10534000E069012812D1002000900498A169421858
:1053500000231946204603F085FC07462FB940F28A
:10536000213218A11DA0FEF709FE00BF1DE000BFFD
:105370001BE000BF0498A061A06908B1012000E013
:10538000002028B94FF44E720EA114A0FEF7F6FDCE
:10539000A06941192B462A462046FFF7BBFE04E0D0
:1053A000204602F049FA00E000BF00BF00231A4681
:1053B00003A90E48006802F037FE002885D107B027
:1053C000F0BD00002E2E5C4672656552544F535C52
:1053D00074696D6572732E63000000004572726F10
:1053E000723A25732C25640D0A0000004801002044
:1053F000F8B505460C4602F087FC684600F04CF80C
:105400000646009820BB44B9B54206D803F048FBD5
:1054100031462846FFF716FF1CE03CB10E480068F5
:10542000006808B9012000E000200446A91B2246BC
:105430000A48006802F0D2FA03F032FB50B94FF08C
:10544000805007490860BFF34F8FBFF36F8F01E0B3
:1054500003F026FBF8BD00004401002048010020B5
:1054600004ED00E00A490968096809B9012100E072
:10547000002121B14FF0FF31064A116006E00449D6
:105480000968C968C868034A41681160704700002C
:10549000000100202C01002070B5044603F084F9BF
:1054A000054607480068854204D200F00BF8012049
:1054B000206001E00020206001480560284670BDA2
:1054C000500100202DE9F8432DE021480068C06814
:1054D00005681F480068C068C468201D02F0E6F82F
:1054E0002046616A8847E06901281CD1A0694619F5
:1054F000AE4207D966602461211D1548006802F09C
:10550000F9F810E0002003462A46014600902046A4
:1055100003F0A8FB07462FB940F292320DA113A069
:10552000FEF72CFD00BF0A480068006808B901209A
:1055300000E000200028C8D00548D0F800800F48BF
:105540000068034908600D48C0F80080BDE8F88392
:10555000400100202E2E5C4672656552544F535C0C
:1055600074696D6572732E63000000004572726F7E
:10557000723A25732C25640D0A00000044010020B6
:105580000B480068401C08B9012000E0002020B949
:10559000F42208A112A0FEF7F1FC00BF102080F356
:1055A0001188BFF34F8FBFF36F8F00BF00BFFEE7BF
:1055B000540100202E2E5C4672656552544F535C98
:1055C000706F727461626C655C525644535C4152F8
:1055D0004D5F434D335C706F72742E6300000000AA
:1055E0004572726F723A25732C25640D0A00000013
:1055F00008B500BF6846FFF709FC0446204600993D
:10560000FFF7F6FEFFF75EFEF4E770B5044602F022
:1056100097F894F945501AE0A06C38B10021204663
:10562000FFF7C0FD88B102F039FA0EE0606A08B9F0
:10563000012000E0002038B904F1240003F0D6F97D
:1056400018B102F02BFA00E003E0681E45B2002D0D
:10565000E2DC00BFFF2084F8450002F0B5F802F05C
:105660006FF894F9445010E0206908B9012000E077
:10567000002048B904F1100003F0B8F908B102F0B5
:105680000DFA681E45B200E001E0002DECDC00BF21
:10569000FF2084F8440002F097F870BD2DE9F04136
:1056A00004464FF0000802F02FFB3E48006808B99E
:1056B000FFF7C0FB3C480068204000285FD1A4B140
:1056C000083404F0070080B104F00700C0F10800BE
:1056D000044404F0070008B9012000E0002020B9CC
:1056E000BF2232A13BA0FEF749FC002C47D03D4829
:1056F0000068844243D83C4E3046056801E02E469F
:105700002D686868A04202D228680028F7D1254891
:105710000068854233D0306800F10808286830609E
:105720006868001B102813D92F1907F0070008B963
:10573000012000E0002020B9EC221CA125A0FEF7EA
:105740001DFC6868001B78606C603846FFF7AEFC93
:10575000244968680968081A2249086008460068F0
:1057600022490968884203D21E4800681F49086020
:105770000D4968680968084368600020286003F0E4
:105780008FF908F0070008B9012000E0002028B9CF
:105790004FF4967205A10FA0FEF7F0FB4046BDE85E
:1057A000F081000068010020740100202E2E5C466C
:1057B00072656552544F535C706F727461626C65B0
:1057C0005C4D656D4D616E675C686561705F342E20
:1057D000630000004572726F723A25732C25640DC8
:1057E0000A0000006C010020600100207001002010
:1057F0000648006830B10549096801F15000096D9B
:10580000491C01600148006870470000FC0000204E
:1058100070B5044626462CB940F2EF3205A10BA024
:10582000FEF7ACFB01F08CFF356A01F0CDFF284696
:1058300070BD00002E2E5C4672656552544F535C5D
:1058400074696D6572732E63000000004572726F9B
:10585000723A25732C25640D0A000000001F4FF0DA
:1058600080730360001F21F001030360001F034BDE
:10587000036014380260203870470000815500082A
:1058800010B586B00446012144F20400FDF7BAF9D0
:105890004FF40070ADF8140003208DF816001820A6
:1058A0008DF8170005A91C48FBF7C4FC4FF4806075
:1058B000ADF8140004208DF8170005A91648FBF771
:1058C000B9FC25208DF8000003208DF801008DF82B
:1058D000020001208DF803006846FCF79DFF01944B
:1058E0000020ADF80800ADF80A00ADF80C00ADF8E6
:1058F00010000C20ADF80E0001A90848FEF71CFAB4
:10590000012240F225510548FEF7F0F90121034834
:10591000FEF7B6F906B010BD00080140003801409E
:1059200070B506460D4601F00BFF18480068806D03
:1059300088B901201549096881F85C005DB1012131
:105940002846FFF7FBF84FF0805011490860BFF37D
:105950004F8FBFF36F8F01F037FF01F0F1FE0B485F
:105960000068846D4CB126B100200849096888653B
:1059700003E0601E0549096888650020034909683D
:1059800081F85C0001F020FF204670BDFC00002083
:1059900004ED00E010B586B0044601210420FDF7B7
:1059A00031F901214804FDF71DF90420ADF810007C
:1059B00018208DF8130003208DF8120004A9204848
:1059C000FBF738FC0820ADF8100004208DF8130018
:1059D00003208DF8120004A91948FBF72BFC009452
:1059E0004FF48050ADF804000020ADF806004FF4ED
:1059F0008060ADF808000020ADF80C000C20ADF878
:105A00000A0069460F48FEF797F926208DF8140022
:105A100004208DF8150000208DF8160001208DF867
:105A2000170005A8FCF7F8FE012240F225510548B1
:105A3000FEF75CF901210348FEF722F906B010BD1C
:105A4000000801400044004010B586B00446012122
:105A50000820FDF7D7F801218804FDF7C3F84FF4BB
:105A60008060ADF8100018208DF8130003208DF829
:105A7000120004A91C48FBF7DDFB4FF40060ADF8F1
:105A8000100004208DF8130004A91748FBF7D2FB7F
:105A900000940020ADF80400ADF80600ADF8080051
:105AA000ADF80C000C20ADF80A0069460F48FEF76F
:105AB00043F9012240F225510C48FEF717F927203F
:105AC0008DF8140005208DF8150000208DF81600C3
:105AD00001208DF8170005A8FCF79EFE0121034860
